:020000040800F2
:10000000F80C002079720008553700088372000848
:10001000573700085B3700085F3700080000000012
:10002000000000000000000000000000633700082E
:1000300065370008000000008F720008673700086D
:10004000937200089372000893720008937200087C
:10005000937200089372000893720008937200086C
:10006000937200089372000893720008937200085C
:10007000937200089372000893720008937200084C
:10008000937200089372000893720008937200083C
:10009000937200089372000893720008937200082C
:1000A000937200089372000893720008937200081C
:1000B000937200089372000893720008937200080C
:1000C00093720008937200089372000893720008FC
:1000D000937200086F3700089372000871370008A8
:1000E00093720008937200089372000800F002F8FF
:1000F00000F03CF80AA090E8000C82448344AAF186
:100100000107DA4501D100F031F8AFF2090EBAE883
:100110000F0013F0010F18BFFB1A43F0010318473B
:10012000509A0000709A0000103A24BF78C878C135
:10013000FAD8520724BF30C830C144BF04680C60ED
:10014000704700000023002400250026103A28BF35
:1001500078C1FBD8520728BF30C148BF0B60704739
:100160001FB507F033FA1FBD10B510BD07F054FAE4
:100170001146FFF7F5FF00F009F807F072FA03B433
:10018000FFF7F2FF03BC07F073FA000003F08BFAED
:10019000044802F0ABFD044800F0ABFA01E000F0C7
:1001A00063F8FCE734000020B40000200122C27292
:1001B000704710B50446607AD0B113480078401CEF
:1001C0001149087008460078012804D0142806D088
:1001D00028280CD107E00D4804F0DAFC07E00B48B2
:1001E00004F0E6FC03E000200749087000BF05E0CA
:1001F000064804F0CDFC054804F0D2FC10BD00B563
:100200000348FFF7D3FF00BD00000020640000207A
:100210009C00002010B5324800F06EFE304801F01E
:1002200085FB10BD10B52F4800F06CFA2D4800F08A
:1002300052FB2D4802F0FFF910BD10B52A4802F01C
:100240006CF910BD704710B5284801F0D6FE27485C
:1002500001F0B8FF254802F032F8214801F00CFD0A
:100260002348FFF7A6FF10BD10B5224800880128DB
:1002700004DBFFF7CFFF00201E4908801D4840889F
:10028000022804DBFFF7CEFF00201A4948801948F6
:100290008088052804DBFFF7D0FF002015498880FF
:1002A0001448C0880A2804DBFFF7CCFF002011495E
:1002B000C88010480089142804DBFFF7C4FF002021
:1002C0000C49088110BD00210181C18081804180DD
:1002D0000180704700B50748FFF7F5FF00BD00003B
:1002E00080010020B400002010020020CE01002078
:1002F0009C000020A80000202DE9F04781460C4614
:1003000015462946C34809F0C1F8804641464FF0DA
:100310007E5008F0FFFE0746214608F087FE06469D
:100320003146204608F0F6FEBDE8F0872DE9F84F8B
:100330000F4615461C462946B64809F0A7F88146DF
:10034000394609F0A3F8804641464FF07E5008F048
:10035000E1FE06463146B04809F098F8824631463B
:10036000304609F093F88346514608F05FFE814617
:100370004FF07E5108F05AFE804641464FF07E50C5
:1003800008F0C8FE20603146A34809F07FF8834694
:100390003146304609F07AF85946009008F046FE9A
:1003A00082464FF07E5108F041FE804631469A4821
:1003B00009F06CF8314600904FF0804009F066F883
:1003C0008346314609F062F88246009908F02EFE15
:1003D0008146414608F09EFE606031468E4809F035
:1003E00055F883463146304609F050F8594600909A
:1003F00008F01CFE81464FF07E5108F017FE804643
:100400003146304609F042F88246414608F082FE05
:10041000A060BDE8F88F2DE9F04107460D4614466F
:100420002146284608F002FE06463146204608F0DE
:1004300071FEBDE8F0810FB4F0B58DB005460F46F2
:100440001A9C224617A904A808F035FA04A807C880
:1004500007AB07C321464FF07E5009F0D7F9064697
:10046000324614A901A808F026FA01A807C80AAB69
:1004700007C307AA0AA9284608F039FA0DB0F0BC4C
:100480005DF814FB0FB470B59EB005460E461446D9
:100490000FA8002181604160016000BF04F10C01E0
:1004A0000CA8A26808F007FA0CA807C812AB07C38B
:1004B00004F1180109A8626808F0FDF909A807C845
:1004C00015AB07C325A906A8226808F0F4F906A809
:1004D00007C818AB07C315AA18A903A808F007FA9C
:1004E00003A807C81BAB07C312AA1BA9684608F0DC
:1004F000AAF99DE807000FAB07C3D4E90712A0696A
:10050000C4E90412E0600FA807C8C4E90712A0619B
:100510000FA807C885E807001EB070BC5DF814FB83
:100520002DE9F05F83460C4615463C48A1680068FB
:1005300008F0ACFF80463A486168006808F0A6FF02
:1005400081462846216808F0A1FF8246494608F006
:100550006DFD0746414609F059F9064630480068E6
:100560002E4908602E480660304608F0C9FEBDE8F6
:10057000F09F2DE9F05F83460C4615462948A16897
:10058000006808F083FF804627486168006808F02B
:100590007DFF81462846216808F078FF824649465B
:1005A00008F044FD0746414609F030F906461E486A
:1005B00000681C4908601C480660304608F0A0FE30
:1005C000BDE8F09F0FB4F0B58DB005460F461A9CFC
:1005D00021464FF07E5009F019F90646324617A918
:1005E00004A808F068F904A807C807AB07C32246A7
:1005F00014A901A808F05FF901A807C80AAB07C34E
:1006000007AA0AA9284608F072F90DB0F0BC5DF8F7
:1006100014FB0000DB0FC940000040400800002030
:1006200004000020100000200C00002010B504463B
:10063000204600BF0446204608F056F8044604F160
:100640000C0008F051F8A0F10C0404F1180008F0B7
:100650004BF8A0F1180404F1240008F045F8A0F1CB
:10066000240404F1300008F03FF8A0F1300404F154
:100670003C0007F004F8A0F13C0404F1600006F02F
:10068000FEFFA0F1600404F188004FF07E5101608C
:100690000021C1608160416000BFA0F18804204654
:1006A00010BD10B5044662224FF47A71EA4803F097
:1006B0007FFA10BD10B50446E84AE9492046FFF725
:1006C0001BFEE849086004F13C03E44AE449204683
:1006D000FFF72CFE04F16003E34AE1492046FFF7EF
:1006E00025FEE24ADE492046FFF795FEDD494860D7
:1006F00010BD10B504462046FFF7DCFF2046FFF78B
:10070000D0FF10BD3EB50446D34803F023FBD248CA
:1007100003F0F3FBD049684603F053FC9DE8070063
:10072000C4E90412E060CC49684603F043FC9DE84C
:100730000700C4E90A1260623EBD7FB598B0044666
:10074000239ECB48007800F0010048B9C84806F065
:10075000DEFF28B1C74807F0C7FFC548AFF30080E8
:10076000C548007800F0010048B9C34806F0CFFF43
:1007700028B1C24807F0B8FFBF48AFF30080C048B7
:10078000007800F0010068B9BD4806F0C0FF48B12C
:100790004FF08B4300221146BA4807F0A1FFB8483A
:1007A000AFF30080B848007800F0010060B9B648A7
:1007B00006F0ADFF40B100231A46B449B44807F033
:1007C0008FFFB148AFF3008009AD284607F08CFFDA
:1007D000054605F10C0007F087FFA0F10C0505F1B7
:1007E000180007F081FFA0F1180500BFA34A19A95E
:1007F00006A808F07CF806A807C812AB07C34FF09C
:100800007C5212A903A808F056F803A807C815AB34
:1008100007C3324615A9684608F04DF895489DE88B
:100820000E000EC0954819A90EC90EC0914909A81D
:1008300007F094FE934A09A906A807F08FFF914894
:1008400006A90EC90EC0924A09A906A807F086FF9C
:100850008F4806A90EC90EC0B4F8980080B232289D
:1008600018DDB4F8980080B2962813DA7D48406805
:10087000049020A807C801AB07C382488068009095
:10088000804821460CC806A8FFF79CFE7D4806A9B3
:100890000EC90EC021467B4807F0ECFE21467C487D
:1008A00007F012FF1CB070BD2DE9F04782460C46E0
:1008B00078490968601A08F091F90746764A774B3B
:1008C00008F0A0F9054608F069F88146714804600F
:1008D0004846BDE8F0872DE9F04395B004460EA8E0
:1008E00007F0C0FE08A807F0BDFED4E90A01CDE973
:1008F000000104F13C02214605A8636AFFF7C2FD2E
:1009000005A807C8C4E90D122063D4E90401CDE9A4
:10091000000104F16002214605A8E368FFF7B2FD7B
:1009200005A807C8C4E90712A06104F130052946EB
:10093000284607F0A4FF8146594908F0A7FD8046E4
:100940004FF0974108F0E6FB074608F0D9FCC4F8E1
:10095000980002F073FE054629462046FFF7A4FFE3
:100960000646206A00903C4905A8D4E9062303F016
:100970002FFB0396D4E90D12206B8DE8070020466B
:1009800005A90EC9FFF7D9FE15B0BDE8F083F0B593
:1009900099B00446219E0DA807F0A6FE0AA807F00C
:1009A000A3FE07A807F0A0FE1EAD284607F028FF0B
:1009B00007463946284607F0A0FE00BF0DA904F1FE
:1009C000880002F085FB0DAA1EA904A807F0ABFF62
:1009D00004A807C80AAB07C3324A0AA904A807F04B
:1009E0006AFF04A807C816AB07C316A907A807F033
:1009F00098FE4FF080420AA904A807F05CFF04A803
:100A000007C810AB07C307AA10A901A807F06FFF1A
:100A100001A807C813AB07C313A904F10C0007F022
:100A200080FE324604F10C0104F1880002F0C1FBA3
:100A300004F1880002F092FA04F10803221D214615
:100A400004F1880002F047FD19B0F0BD10B516485A
:100A5000FFF7ECFD10BD0000E4020020000048425A
:100A60006F12033B9C000020000002436666E63FD5
:100A70002400002050010020200000205C01002004
:100A80001C000020680100201800002000004843DE
:100A900074010020140000208DEDB5A0F7C6B03E13
:100AA0000000C8426F12833AB400002070B50446BB
:100AB0000E4615462A4604F10F01FE4803F02CFCB1
:100AC00070BD2DE9F04104460D461646AA20E0739C
:100AD000AA212174EF2161740221A174E5742675A5
:100AE0000027002006E004F10F01095C3944CFB271
:100AF000411CC8B20628F6DB6775082204F10F0115
:100B00002046FFF7D3FFBDE8F0812DE9F04105460F
:100B10000C4616460027002004E0215C3944CFB281
:100B2000411CC8B2711E8142F7DCA01910F8010CFB
:100B3000B84201D0BDE8F0812078AA2802D16078BF
:100B4000AF2800D0F6E70021DB488172A0780128A9
:100B500011D12079012801D1D849087020790228C3
:100B600002D10120D54948702079032803D1012002
:100B7000D24908704870A078022816D1207901283F
:100B800005D128716871A871E8712872687220799E
:100B9000A02801D1012028702079A12805D1C848BA
:100BA00001F07AFCC74801F088FFA07803282FD114
:100BB0002079617941EA0020C349C880A079E179B0
:100BC00041EA0020C0498880207A617A41EA002009
:100BD000BD490880A07AE17A41EA0020BA494880FC
:100BE000207B617B41EA0020B7490881A07BE17B43
:100BF00041EA0020B4494881207C617C41EA002020
:100C0000B1498881A07CE17C41EA0020AE49C881DD
:100C1000A07810287ED12179090209B2627941EACF
:100C2000020008F0D3FB8046A84908F073FAA449F3
:100C30000860A179090209B2E27941EA020008F0EC
:100C4000C5FB8046A14908F065FA9D494860217AB4
:100C5000090209B2627A41EA020008F0B7FB804655
:100C60009A4908F057FA96498860A17A090209B2B0
:100C7000E27A41EA020008F0A9FB8046934908F0B5
:100C800049FA8F49C861217B090209B2627B41EAB6
:100C9000020008F09BFB80468C4908F03BFA88492B
:100CA0000862A17B090209B2E27B41EA020008F076
:100CB0008DFB8046854908F02DFA81494862217CE8
:100CC000090209B2627C41EA020008F07FFB80461B
:100CD0007E4908F01FFA7A498863A17C090209B2AB
:100CE000E27C41EA020008F071FB8046774908F097
:100CF00011FA7349C863217D090209B2627D41EA94
:100D0000020008F063FB8046704908F003FA6C4962
:100D1000086400E004E0A1783A462846FFF7D1FED7
:100D2000A07811287ED12179090209B2627941EABD
:100D3000020008F04BFB8046644908F0EBF960497B
:100D40004865A179090209B2E27941EA020008F096
:100D50003DFB80465D4908F0DDF959498865217AF7
:100D6000090209B2627A41EA020008F02FFB8046CC
:100D7000564908F0CFF95249C865A17A090209B26B
:100D8000E27A41EA020008F021FB80464F4908F070
:100D9000C1F94B490867217B090209B2627B41EA2C
:100DA000020008F013FB8046484908F0B3F94449B3
:100DB0004867A17B090209B2E27B41EA020008F020
:100DC00005FB8046414908F0A5F93D498867217C2B
:100DD000090209B2627C41EA020008F0F7FA804693
:100DE0003A4908F097F93649C1F88C00A17C09020C
:100DF00009B2E27C41EA020008F0E8FA8046334991
:100E000008F088F92E49C1F89000217D090209B245
:100E1000627D41EA020008F0D9FA80462B4908F0C9
:100E200079F900E007E02649C1F89400A1783A4634
:100E30002846FFF746FEA078122834D1217909020E
:100E400009B2627941EA020008F0C0FA80461F49FF
:100E500008F060F91A49C1F8A800A179090209B29D
:100E6000E27941EA020008F0B1FA8046174908F039
:100E700051F91349C1F8AC00217A090209B2627A2A
:100E800041EA020008F0A2FA8046104908F042F94F
:100E90000B49C1F8B000A1783A462846FFF711FE89
:100EA000084801F00AFEA078132813D1A1783A4629
:100EB00028460DE03C0300209C000020E4020020B6
:100EC0001002002034000020CE01002000007A44EF
:100ED000FFF7F7FDA078142804D1A1783A462846F8
:100EE000FFF7EFFDA078152804D1A1783A462846EF
:100EF000FFF7E7FD00BF1DE610B50446FB4803F011
:100F000088FA10BD2DE9FC5F04460E461746984648
:100F1000DDE90CAB0025AA2229466D1C04F10F0067
:100F2000425429466D1C425406F10F00C2B22946B4
:100F30006D1C04F10F004254002229466D1C4254DE
:100F4000EB49384608F0A2FA009008F0D9F900B24F
:100F500001909DF8052029466D1C04F10F004254B4
:100F60009DF8042029466D1C4254E149404608F092
:100F70008DFA009008F0C4F900B201909DF80520A8
:100F800029466D1C04F10F0042549DF804202846A8
:100F9000691CCDB204F10F010A54D549504608F03E
:100FA00075FA009008F0ACF900B201909DF80520A8
:100FB0002846691CCDB204F10F010A549DF80420A3
:100FC0002846691CCDB204F10F010A54C84958469D
:100FD00008F05CFA009008F093F900B201909DF8D7
:100FE00005202846691CCDB204F10F010A549DF872
:100FF00004202846691CCDB204F10F010A54BC49F3
:101000000E9808F043FA009008F07AF900B20190C7
:101010009DF805202846691CCDB204F10F010A5441
:101020009DF804202846691CCDB204F10F010A5432
:10103000AF490F9808F02AFA009008F061F900B261
:1010400001909DF805202846691CCDB204F10F01DE
:101050000A549DF804202846691CCDB204F10F0102
:101060000A54A349109808F011FA009008F048F9C2
:1010700000B201909DF805202846691CCDB204F10C
:101080000F010A549DF804202846691CCDB204F1D2
:101090000F010A549649119808F0F8F9009008F0E9
:1010A0002FF900B201909DF805202846691CCDB2A9
:1010B00004F10F010A549DF804202846691CCDB2A2
:1010C00004F10F010A548A49129808F0DFF90090E0
:1010D00008F016F900B201909DF805202846691C19
:1010E000CDB204F10F010A549DF804202846691C72
:1010F000CDB204F10F010A54281FA0744FF000096B
:10110000002007E004F10F01095C494401F0FF09E8
:10111000411CC8B2A842F5DB2846691CCDB204F1D7
:101120000F0101F800902A462046FFF7BFFCBDE8FA
:10113000FC9F2DE9F84304460E4617460025AA22D7
:1011400029466D1C04F10F00425429466D1C42547F
:10115000052229466D1C4254002229466D1C42542A
:1011600000969DF8012029466D1C42549DF80020F0
:1011700029466D1C425400979DF8012029466D1C9C
:1011800042549DF800202846691CCDB204F10F019D
:101190000A54281FA0744FF00008002007E004F153
:1011A0000F01095C414401F0FF08411CC8B2A8428C
:1011B000F5DB2846691CCDB204F10F0101F800806F
:1011C0002A462046FFF772FCBDE8F8837FB5044647
:1011D0000025AA2229466D1C04F10F00425429461D
:1011E0006D1C4254062229466D1C42540022294699
:1011F0006D1C42549DF8052029466D1C42549DF8F3
:10120000042029466D1C42549DF8092029466D1C76
:1012100042549DF808202846691CCDB204F10F0104
:101220000A549DF80D202846691CCDB204F10F0127
:101230000A549DF80C202846691CCDB204F10F0118
:101240000A549DF821202846691CCDB204F10F01F3
:101250000A549DF820202846691CCDB204F10F01E4
:101260000A549DF825202846691CCDB204F10F01CF
:101270000A549DF824202846691CCDB204F10F01C0
:101280000A549DF829202846691CCDB204F10F01AB
:101290000A549DF828202846691CCDB204F10F019C
:1012A0000A549DF82D202846691CCDB204F10F0187
:1012B0000A549DF82C202846691CCDB204F10F0178
:1012C0000A549DF831202846691CCDB204F10F0163
:1012D0000A549DF830202846691CCDB204F10F0154
:1012E0000A54281FA074002600200AE03C030020B6
:1012F00000007A4404F10F01095C3144CEB2411C74
:10130000C8B2A842F6DB2846691CCDB204F10F0131
:101310000E542A462046FFF7C9FB7FBD7FB5044621
:101320000025AA2229466D1C04F10F0042542946CB
:101330006D1C4254032229466D1C4254002229464A
:101340006D1C42549DF8052029466D1C42549DF8A1
:10135000042029466D1C42549DF8092029466D1C25
:1013600042549DF808202846691CCDB204F10F01B3
:101370000A549DF80D202846691CCDB204F10F01D6
:101380000A549DF80C202846691CCDB204F10F01C7
:101390000A549DF821202846691CCDB204F10F01A2
:1013A0000A549DF820202846691CCDB204F10F0193
:1013B0000A549DF825202846691CCDB204F10F017E
:1013C0000A549DF824202846691CCDB204F10F016F
:1013D0000A549DF829202846691CCDB204F10F015A
:1013E0000A549DF828202846691CCDB204F10F014B
:1013F0000A549DF82D202846691CCDB204F10F0136
:101400000A549DF82C202846691CCDB204F10F0126
:101410000A549DF831202846691CCDB204F10F0111
:101420000A549DF830202846691CCDB204F10F0102
:101430000A549DF835202846691CCDB204F10F01ED
:101440000A549DF834202846691CCDB204F10F01DE
:101450000A549DF839202846691CCDB204F10F01C9
:101460000A549DF838202846691CCDB204F10F01BA
:101470000A54281FA0740026002006E004F10F0182
:10148000095C3144CEB2411CC8B2A842F6DB284602
:10149000691CCDB204F10F010E542A462046FFF715
:1014A00005FB7FBD2DE9F84304460E46174600258F
:1014B000AA2229466D1C04F10F00425429466D1CD6
:1014C0004254072229466D1C4254002229466D1CB5
:1014D000425400969DF8032029466D1C42549DF805
:1014E000022029466D1C42549DF8012029466D1C9E
:1014F00042549DF800202846691CCDB204F10F012A
:101500000A5400979DF801202846691CCDB204F1C9
:101510000F010A549DF800202846691CCDB204F141
:101520000F010A54281FA0744FF00008002007E0A4
:1015300004F10F01095C414401F0FF08411CC8B2ED
:10154000A842F5DB2846691CCDB204F10F0101F871
:1015500000802A462046FFF7A9FABDE8F8832DE966
:10156000F84F04460E4617469846DDE90AAB0025BB
:10157000AA2229466D1C04F10F00425429466D1C15
:101580004254022229466D1C4254002229466D1CF9
:10159000425400969DF8012029466D1C42549DF846
:1015A000002029466D1C425400979DF801202946D1
:1015B0006D1C42549DF800202846691CCDB204F1F0
:1015C0000F010A54CDF800809DF801202846691CBF
:1015D000CDB204F10F010A549DF800202846691C81
:1015E000CDB204F10F010A54CDF800A09DF80120FE
:1015F0002846691CCDB204F10F010A549DF8002061
:101600002846691CCDB204F10F010A54CDF800B090
:101610009DF801202846691CCDB204F10F010A543F
:101620009DF800202846691CCDB204F10F010A5430
:101630000C9800909DF801202846691CCDB204F159
:101640000F010A549DF800202846691CCDB204F110
:101650000F010A540D9800909DF801202846691C3E
:10166000CDB204F10F010A549DF800202846691CF0
:10167000CDB204F10F010A540E9800909DF801209C
:101680002846691CCDB204F10F010A549DF80020D0
:101690002846691CCDB204F10F010A540F9800903E
:1016A0009DF801202846691CCDB204F10F010A54AF
:1016B0009DF800202846691CCDB204F10F010A54A0
:1016C000281FA0744FF00009002007E004F10F016B
:1016D000095C494401F0FF09411CC8B2A842F5DB8E
:1016E0002846691CCDB204F10F0101F800902A468A
:1016F0002046FFF7DBF9BDE8F88F2DE9FE4F0446E1
:101700000E4617469846DDE90CAB0025CDF804A03F
:10171000AA2229466D1C04F10F00425429466D1C73
:101720004254012229466D1C4254002229466D1C58
:101730004254FA49304607F0A9FE009007F0E0FD58
:1017400000B202909DF8092029466D1C04F10F009B
:1017500042549DF8082029466D1C4254EF493846F2
:1017600007F094FE009007F0CBFD00B202909DF8C8
:10177000092029466D1C04F10F0042549DF80820F1
:101780002846691CCDB204F10F010A54E3494046D2
:1017900007F07CFE009007F0B3FD00B202909DF8C8
:1017A00009202846691CCDB204F10F010A549DF8A6
:1017B00008202846691CCDB204F10F010A549DF897
:1017C00007202846691CCDB204F10F010A549DF888
:1017D00006202846691CCDB204F10F010A549DF879
:1017E00005202846691CCDB204F10F010A549DF86A
:1017F00004202846691CCDB204F10F010A54284682
:10180000691CCDB204F10F0101F800B029466A1C31
:10181000D5B204F10F020E985054281FA0744FF057
:101820000009002007E004F10F01095C494401F0C0
:10183000FF09411CC8B2A842F5DB2846691CCDB29D
:1018400004F10F0101F800902A462046FFF72EF917
:10185000BDE8FE8F2DE9FF4104460E460025AA2271
:1018600029466D1C04F10F00425429466D1C425458
:10187000002229466D1C425429466D1C42542946BB
:101880006D1C46549DF8092029466D1C42549DF854
:10189000082029466D1C42549DF80D202846691CDD
:1018A000CDB204F10F010A549DF80C202846691CA2
:1018B000CDB204F10F010A549DF829202846691C75
:1018C000CDB204F10F010A549DF828202846691C66
:1018D000CDB204F10F010A549DF82D202846691C51
:1018E000CDB204F10F010A549DF82C202846691C42
:1018F000CDB204F10F010A54281FA0740027002064
:1019000006E004F10F01095C3944CFB2411CC8B2B2
:10191000A842F6DB2846691CCDB204F10F010F5432
:101920002A462046FFF7C2F8BDE8FF812DE9F047BF
:1019300088B004467A4800787A49097890FBF1F239
:1019400001FB120177480078401E814201D101203D
:10195000A070734800787449097890FBF1F201FB9C
:10196000120171480078401E814201D10120E070CF
:101970006B4800786D49097890FBF1F201FB120188
:101980006A480078401E814201D10120607364489A
:1019900000786749097890FBF1F201FB1201644875
:1019A0000078401E814201D1012060705C480078BF
:1019B0006049097890FBF1F201FB12015D48007863
:1019C000401E814201D10120A072554800785A4939
:1019D000097890FBF1F201FB120157480078401E94
:1019E000814201D1012020734D4800785349097884
:1019F00090FBF1F201FB120150480078401E814239
:101A000001D10120A07346480078401C4449087069
:101A1000207868B1002020704FF4C8716E234FF415
:101A20009672CDE9001001212046FFF713FF20E157
:101A3000607878B1002060704148407A00210091C0
:101A4000CDE901103F488368426801682046FFF7EE
:101A500054FE0EE1607B10B10020607309E1A078B4
:101A600080B30020A0703749486907F049FC05B2EF
:101A70003449086907F044FC06B23249C86807F0E7
:101A80003FFC07B22F49C86A07F03AFC0FFA80F80A
:101A90002C49886A07F034FC0FFA80F92949486A12
:101AA00007F02EFC0FFA80FA0020CDE902500490D6
:101AB00043464A465146CDE9007605902046FFF759
:101AC0004EFDD6E0FFE7E07838B10020E07000225C
:101AD00011462046FFF7E6FCCBE0A07AE8B10020F3
:101AE000A0721948408A1849098A174AD289164BA8
:101AF0009B89CDE90332CDE905101348418900895E
:101B0000114A5288CDE9002002910F48038882884B
:101B1000C1882046FFF702FCABE017E00000C84296
:101B200028000020290000202F0000202A0000208B
:101B30002B0000202C0000202D0000202E00002073
:101B40009C000020B4000020CE010020207B50B378
:101B50000020207306A9544800F0E0F900200AE0B4
:101B600006A931F81010A1F57A7109B206AA22F877
:101B70001010411CC8B20428F2DB00200190029032
:101B800003900490BDF81E0080B20090BDF81C00C8
:101B900083B2BDF81A0082B2BDF8180081B22046A7
:101BA000FFF714FB65E0A07B40B10020A0734FF469
:101BB000E4727B212046FFF7BCFA5AE02079E0B1BD
:101BC000002020713948016CC26B806B374B5B6A17
:101BD000CDE90330CDE905213448006A3349C969AC
:101BE000324A9268CDE900210290304843680121D1
:101BF00002682046FFF786F93BE0607900B30020D9
:101C000060712A48D0F894002849D1F89010274AEA
:101C1000D2F88C20254B9B6FCDE90332CDE905101E
:101C20002248416F006F214AD26DCDE90020029118
:101C30001E48836D0221426D2046FFF763F918E0CC
:101C4000A079B0B10020A0710390049005900146E6
:101C5000024606901548D0F8B000CDE90121009069
:101C60001248D0F8AC300321D0F8A8202046FFF766
:101C700049F908B0BDE8F0870D4909781E290CDD47
:101C800000210B4A11700B49897A19B901220949BF
:101C90008A7202E0002207494A7205490978491C04
:101CA000034A117070470000C2010020100200209A
:101CB000300000209C0000200146002005E04FF489
:101CC0007A7221F81020421CD0B20628F7DB704748
:101CD0002DE9F04F8FB004460D4616469B46DDF8C1
:101CE0006090484606F063FFCDE90A01584606F0C9
:101CF0005EFF0746904A914B06F084FFCDE906014E
:101D0000304606F054FF00228D4BCDE9000106F06D
:101D100079FF07468846284606F060FF3A46434664
:101D2000CDE9020107F06CF8CDE90401DDE90623F5
:101D300006F066FECDE90801DDE90A2306F060FE43
:101D4000CDE90C0106F004FF00B22080484606F001
:101D50002EFFCDE90A01584606F029FF0746764ACC
:101D6000764B06F04FFFCDE90601304606F01FFF27
:101D700007460022724B06F045FFCDE902012846D6
:101D800006F02CFFCDE90001DDE9022307F038F869
:101D9000CDE90401DDE9062307F032F8CDE90801B9
:101DA000DDE90A2306F02CFECDE90C0106F0D0FE99
:101DB00000B26080484606F0FAFECDE90A015846B6
:101DC00006F0F5FE07465C4A5C4B06F01BFFCDE9CA
:101DD0000601304606F0EBFE0022594BCDE900012A
:101DE00006F010FF07468846284606F0F7FE3A46FA
:101DF0004346CDE9020106F003FECDE90401DDE929
:101E0000062306F0FDFDCDE90801DDE90A2306F011
:101E1000F7FFCDE90C0106F09BFE00B2A08048461A
:101E200006F0C5FECDE90A01584606F0C0FE074699
:101E3000414A424B06F0E6FECDE90601304606F087
:101E4000B6FE074600223E4B06F0DCFECDE902015D
:101E5000284606F0C3FECDE90001DDE9022306F0C5
:101E6000CFFDCDE90401DDE9062306F0C9FFCDE988
:101E70000801DDE90A2306F0C3FFCDE90C0106F0F5
:101E800067FE00B2E080A81BA0EB090000B2208131
:101E9000A819484400B26081B4F900A0012007E00D
:101EA00034F91010514501DD34F910A0411CC8B2BD
:101EB0000628F5DB002719E040F26C70824507DD4B
:101EC00034F81710AAF26C70081A00B224F8170040
:101ED00034F8171088B240F26C7240F24C4100F0B6
:101EE0009FFF00B224F81700781CC7B2062FE3DB6F
:101EF0001448407A10B92046FFF7DEFE1248C08829
:101F000040F24C41884202DA2046FFF7D5FE2146D6
:101F10000E4802F068FB0FB0BDE8F08F02880A801F
:101F200042884A8082888A80C288CA8002890A815F
:101F300042894A817047000083C0CAA145B6EB3F81
:101F40000000E03F9C000020CE010020580000204F
:101F500030B50146002013E000FB00F2193A3223AD
:101F60005A4302F6C41242435A4340F6C41392FB4A
:101F7000F3F213B201F11C0222F81030421CD0B26D
:101F80000728E9DB00202EE000EB80046400A4F1C8
:101F900032020123002A00DD3223002A00DA322334
:101FA000002503FB03F495FBF4F4643454430A2541
:101FB00094FBF5F404F5FA7425B201F12A0424F82F
:101FC000105034F910404FF448756C434FF47A7553
:101FD00094FBF5F404F24C4425B201F12A0424F8F0
:101FE0001050421CD0B20C28CEDB30BD10B50446D8
:101FF0002046FFF7ADFF204610BD2DE9F05F0446F7
:10200000002060E034F81010A1F2DC51002904DD5A
:1020100034F81010A1F2DC5104E034F8101040F252
:10202000DC52511AB1F5FA7F10DA34F81010A1F22F
:10203000DC51002904DD34F81010A1F2DC5107E076
:1020400034F8101040F2DC52511A01E04FF4FA71EA
:102050000E4602281FD0642196FBF1F504F11C0105
:102060006A1C31F9122031F91510511A05EBC5021D
:1020700002EB0512A6EB82025143642291FBF2F2BD
:1020800004F11C0131F8151011440AB204F11401D5
:1020900021F8102005E071420AB204F1140121F880
:1020A000102034F8101040F2DC52914209DA04F1A9
:1020B000140131F8101049420AB204F1140121F858
:1020C0001020411CC8B203289CDBE0884FF4FA6260
:1020D00040F27E4100F0A4FE0646A6F27E404FF498
:1020E0007A71484340F25231B0FBF1F6642096FB1E
:1020F000F0F504F12A00691C30F9111030F91500CF
:10210000081A05EBC50101EB0511A6EB8101484357
:10211000642190FBF1F104F12A0030F81500084425
:1021200001B26183E0884FF4FA6240F27E4100F030
:1021300077FE01B26183B4F91800002802DDB4F91A
:10214000180002E0B4F918004042462833DAE0886B
:1021500040F27E4188422EDD6B4AD2F884109068AE
:1021600007F054FB804607F0CBF807B217F1B40F25
:1021700002DC07F5B47007B2B42F02DBA7F5B47028
:1021800007B2784207B2384607F020F983465F4825
:10219000016F584607F07AF98146B4F9180007F044
:1021A00015F98246494607F031FB804607F0A8F84A
:1021B00001B2218304E0544880685349C1F8840087
:1021C000BDE8F09F0146002035E031F81020B2F55F
:1021D000617F04DB31F81020B2F5FA6F00DD2CE0EE
:1021E00031F8102040F27E439A4207DA484A125CE6
:1021F000484B1B781A43474B1A7006E0444A135C5D
:10220000444A12789A43434B1A7031F8102040F236
:102210003A739A4207DD404A125C3E4B1B781A43E0
:102220003C4B1A7006E03C4A135C3A4A12789A43D7
:10223000384B1A70401C0428C7DB00BF354A12789F
:102240004AB1364A1278FA2A0ADA344A1278521C0B
:10225000324B1A7004E00022304B1A702D4B1A706A
:102260002E4A1278642A29D12D4A527A6AB1294A13
:10227000127802F01002E2B1264A127802F040020F
:10228000BAB10023264A537213E0224A127802F0B0
:10229000200272B11F4A127802F040024AB1204A6D
:1022A000127A1AB101231E4A537202E001221D4B19
:1022B0005A700022174B1A70184B1A7070471A493F
:1022C000498900291ADD1849498940F634029142AA
:1022D00014DA15494989002905DD1349498940F275
:1022E000145291420ADB10494989B1F5AF6F04DD00
:1022F0000D494989B1F5C86F00DB00BF704700B5D3
:102300000948FFF773FE00BDB40000201002002052
:10231000D699000832000020DA9900083100002028
:102320009C000020E4020020CE0100202DE9F05F97
:1023300004460E4617460021A06806F0ADFF3AD0CD
:102340000021384606F0A8FF35D0A06920F00041F2
:10235000C1F1FF41C90F19B100250020A06108E0BB
:102360006169701A07F032F88046394606F0D2FEED
:1023700005462846A16907F049FA8246394645488C
:1023800006F054FE83465946384606F0C3FE8146A1
:10239000514607F07BF88046A16906F047FE0546E6
:1023A0006661A5612946A06807F070F8804606F0CE
:1023B000A7FFBDE8F09F0020FBE72DE9F0470446AA
:1023C0000E4615460021606806F066FF22D0002107
:1023D000284606F061FF1DD0304606F0F7FF814623
:1023E000616807F053F88046294607F04FF8074622
:1023F000216906F01BFE2061E06880F0004702467C
:102400003946206900F0DDFC2061206906F078FF84
:10241000BDE8F0870020FBE72DE9F04104460D46BA
:10242000284606F0D3FF0746216807F02FF8064636
:1024300006F066FFBDE8F0812DE9F04104460D4647
:10244000164629462046FFF7E7FF0746324629464B
:102450002046FFF7B2FF0744324629462046FFF7E1
:1024600065FF3844BDE8F0812DE9F04104460D4692
:10247000164629462046FFF7CFFF07463246294633
:102480002046FFF79AFF3844BDE8F0810021016142
:10249000704700000361023C38B50446C048C14B98
:1024A000C14A11460090204605F0F8F8BC48BD4BE3
:1024B000BD4A1146009004F11C0005F0EFF8B84841
:1024C0000023BA4ABA49009004F1380005F0E6F852
:1024D000002003460246B749009004F1540005F07D
:1024E000DDF80020034602464FF08041009004F1E1
:1024F000700005F0D3F838BD10B5044607231C2240
:10250000AD49204605F0F1F80446322084F8C500B4
:102510002046FFF7C1FF204610BD2DE9F04188B0ED
:10252000044603A8002181604160016000BFA34907
:102530000868A34906F0AAFF0746A249B1F914109A
:1025400048004FF4AF72514200F075FC804606F02F
:102550003DFF0646394607F059F9054606F0D0FE1C
:10256000069096494868964906F090FF07469549B7
:10257000B1F9161048004FF4AF72514200F05BFC05
:10258000804606F023FF0646394607F03FF9054628
:1025900006F0B6FE07900221069800F057FC069060
:1025A0000221079800F052FC07904FF081428349C6
:1025B0001831684606F02BF99DE8070003AB07C306
:1025C00004F154000699FFF727FF074606F0FEFEC8
:1025D0000646039907F01AF9054606F091FEC4F87D
:1025E000C80004F154000799FFF716FF074606F0EC
:1025F000EDFE0646049907F009F9054606F080FE4F
:10260000CC21085194F8C5006E49B1F9181000FBAF
:1026100001F5E91705EBD161481106F0D7FE074631
:10262000059907F0F3F8064606F06AFED021085136
:1026300008B0BDE8F0812DE9FF4705465F494868CD
:10264000002106F0EFFF02D25C48406803E05B48DF
:10265000406880F00040074658490868002106F0AD
:10266000E1FF02D25548006803E05448006880F05A
:1026700000408046394606F0D5FF0DD24F49086824
:10268000002106F0CFFF02D24C48006811E04B4811
:10269000006880F000400CE048494868002106F0DE
:1026A000C1FF02D24548406803E04448406880F0DA
:1026B00000400446444A002100F083FB0646002403
:1026C0001BE04048C08840F27E41884205DAC4EBF6
:1026D000C40105EB8100FFF7D9FE05F1C80252F8ED
:1026E0002410C4EBC40205EB8200384AFFF7A4FEB5
:1026F00001A941F82400601CC4B2032CE1DB314B7A
:10270000B3F91830002B03DD2E4BB3F9183003E07A
:102710002C4BB3F918305B4203F59672294BB3F991
:102720001830002B03DD274BB3F9183003E0254B9D
:10273000B3F918305B42264CE11A039800F07BFB9A
:1027400040420390304600F092FB824605F05AFA70
:1027500080461C49B1F91A10A1F57A7006F036FED0
:102760008146414606F0D6FC04461A4906F05EFC56
:10277000074606F0C5FD01B2124841830398009058
:102780001048408B81B21448DDE90123FFF7A0FA1D
:10279000BDE8FF8710B51148FFF7AEFE10BD000081
:1027A000000048430AD7A33C9A99193E6666E63E64
:1027B000CDCC4C3F0000A040AB760008B400002018
:1027C00000002041CE0100200000A0416F12033B19
:1027D000D4FEFFFF00007A44C20100201002002056
:1027E00010B50446FE490888FE49098802F096F9AA
:1027F00010BD1CB50446FA490889694601F0E9FF95
:10280000F74948890DF1020101F0E3FFF449888995
:1028100001A901F0DEFFBDF8000000B2F249088115
:10282000BDF8020001B2F0484181BDF8040001B2D8
:10283000ED4881811CBD1CB50446E94948886946BC
:1028400001F0C7FFE64988880DF1020101F0C1FFE0
:10285000E349C88801A901F0BCFFBDF8000000B23F
:10286000E1494880BDF8020001B2DF488180BDF82F
:10287000040001B2DC48C1801CBD38B50446D8490B
:10288000C889694601F0A5FFBDF8000006F0B6FD55
:102890000546D64906F03EFCD5490860D049088A6D
:1028A000694601F096FFBDF8000006F0A7FD054659
:1028B000CE4906F02FFCCE494860C949488A69468E
:1028C00001F087FFBDF8000006F098FD0546C949F4
:1028D00006F020FCC6498860C149888A694601F033
:1028E00078FFBDF8000006F089FD0546BF4906F0F7
:1028F00011FCBF49C861BA49C88A694601F069FF3D
:10290000BDF8000006F07AFD0546B84906F002FC65
:10291000B7490862B249088B694601F05AFFBDF811
:10292000000006F06BFD0546B24906F0F3FBB04926
:102930004862AB49488B694601F04BFFBDF8000087
:1029400006F05CFD0546A94906F0E4FBA84988634A
:10295000A349888B694601F03CFFBDF8000006F0F2
:102960004DFD0546A14906F0D5FBA149C8639C4928
:10297000C88B694601F02DFFBDF8000006F03EFD52
:1029800005469C4906F0C6FB994908649449088CA1
:10299000694601F01EFFBDF8000006F02FFD054658
:1029A000924906F0B7FB9249C1F8A8008C49488CBF
:1029B000694601F00EFFBDF8000006F01FFD054658
:1029C0008A4906F0A7FB8A49C1F8AC008449888C83
:1029D000694601F0FEFEBDF8000006F00FFD054659
:1029E000844906F097FB8249C1F8B0007C49C88C45
:1029F000694601F0EEFEBDF8000006F0FFFC05465A
:102A00007A4906F087FB7A4948657549088D694619
:102A100001F0DFFEBDF8000006F0F0FC054673494A
:102A200006F078FB724988656D49488D694601F06A
:102A3000D0FEBDF8000006F0E1FC05466D4906F049
:102A400069FB6B49C8656649888D694601F0C1FE1E
:102A5000BDF8000006F0D2FC0546644906F05AFBBA
:102A6000634908675E49C88D694601F0B2FEBDF84A
:102A7000000006F0C3FC05465C4906F04BFB5C49D0
:102A800048675749088E694601F0A3FEBDF800006B
:102A900006F0B4FC0546574906F03CFB54498867EC
:102AA00038BD10B504462046FFF7E7FE2046FFF785
:102AB000C2FE2046FFF79DFE10BD70B505464C498D
:102AC00008684A4906F0E2FC064606F05FFC84B25C
:102AD0004349C889214602F021F8454948684349DD
:102AE00006F0D4FC064606F051FC84B23C49088A44
:102AF000214602F013F83E4988683E4906F0C6FCBC
:102B0000064606F043FC84B23549488A214602F065
:102B100005F83749C869354906F0B8FC064606F09D
:102B200035FC84B22E49888A214601F0F7FF3049EE
:102B3000086A2E4906F0AAFC064606F027FC84B275
:102B40002749C88A214601F0E9FF2949486A2949ED
:102B500006F09CFC064606F019FC84B22049088B5E
:102B6000214601F0DBFF2249886B204906F08EFCEC
:102B7000064606F00BFC84B21949488B214601F049
:102B8000CDFF1B49C86B194906F080FC064606F0CC
:102B9000FDFB84B21249888B214601F0BFFF144926
:102BA000086C144906F072FC064606F0EFFB84B28E
:102BB0000B49C88B214601F0B1FF0D49D1F8A8009F
:102BC0000A4906F063FC064606F0E0FB84B20449BD
:102BD000088C214601F0A2FF0549D1F8AC000BE0BA
:102BE000DE99000836000020E40200200000C84200
:102BF0001002002000007A445E4906F047FC0646B9
:102C000006F0C4FB84B25C49488C214601F086FF83
:102C10005A49D1F8B0005A4906F038FC064606F089
:102C2000B5FB84B25449888C214601F077FF5349A3
:102C3000486D504906F02AFC064606F0A7FB84B210
:102C40004D49C88C214601F069FF4C49886D4949BE
:102C500006F01CFC064606F099FB84B24649088D36
:102C6000214601F05BFF4549C86D454906F00EFC61
:102C7000064606F08BFB84B23F49488D214601F0A1
:102C80004DFF3E49086F3B4906F000FC064606F042
:102C90007DFB84B23849888D214601F03FFF3749DA
:102CA000486F344906F0F2FB064606F06FFB84B22B
:102CB0003149C88D214601F031FF3049886F3049D4
:102CC00006F0E4FB064606F061FB84B22A49088E52
:102CD000214601F023FF70BD38B504462649088817
:102CE000694601F076FDBDF8000038BD10B5044618
:102CF0002046FFF7F1FF23490988884202D0204689
:102D0000FFF7DBFE2046FFF7CCFE2046FFF768FD0D
:102D100010BD10B504461C4A528891B2164A50881C
:102D200001F0FCFE184A928891B2134A908801F093
:102D3000F5FE154AD28891B20F4AD08801F0EEFE16
:102D400010BD10B50446104A128991B20A4A108982
:102D500001F0E4FE0C4A528991B2074A508901F011
:102D6000DDFE094A928991B2034A908901F0D6FEAC
:102D700010BD00000000C842DE99000810020020CB
:102D800000007A4436000020E402002010B504461A
:102D9000204604F0A3FC08B1002010BD4FF07E5186
:102DA000204606F03FFC01D86748F6E76749204611
:102DB00006F038FB01D86648EFE7204604F060FDD6
:102DC000EBE72DE9F04106460C461546304604F087
:102DD00085FC50B12946204606F028F907464FF0F9
:102DE0007C5106F053FBBDE8F0812146304606F0E9
:102DF00019FB01D22046F6E72946304606F012FCC0
:102E000001D22846EFE73046EDE703468B4201DA70
:102E100008467047934201DD1046FAE71846F8E786
:102E200003468B4201DA08467047934201DD1046A3
:102E3000FAE71846F8E703468B4201DA084670477E
:102E4000934201DD1046FAE71846F8E7002801DD55
:102E5000024600E042428A4201DA002006E00028F1
:102E600001DD401A02E0002800DA0844704710B57E
:102E700004463849204606F009FB10BD10B504464B
:102E80003549204606F002FB10BD10B50446214628
:102E9000204606F0FBFA10BD2DE9F04105460C4630
:102EA0002046FFF7F2FF07462846FFF7EEFF804671
:102EB000394606F0BBF8064605F03AFBBDE8F0815E
:102EC0002DE9F05F06460C4615462846FFF7DDFF64
:102ED00081462046FFF7D9FF82463046FFF7D5FFEF
:102EE0008346514606F0A2F88046494606F09EF811
:102EF000074605F01DFBBDE8F09F2DE9FE4F074694
:102F00000C4615461E463046FFF7BFFF0290284686
:102F1000FFF7BBFF01902046FFF7B7FF0090384650
:102F2000FFF7B3FF8346009906F080F882460199C7
:102F300006F07CF88146029906F078F8804605F0A4
:102F4000F7FABDE8FE8F0000DB0FC93F000080BF2D
:102F5000DB0FC9BF34FA8E3CE12E654270B50446E2
:102F600094E80F00FFF7C9FF05462946206806F0E0
:102F7000D1F820602946606806F0CCF860602946E8
:102F8000A06806F0C7F8A0602946E06806F0C2F81D
:102F9000E06070BD2DE9F04F85B004460D46A16894
:102FA000084606F073FA0746D4E9020106F06EFA05
:102FB00080466168084606F069FA8146D4E9010155
:102FC00006F064FA8246E168606806F05FFA0490F1
:102FD000D4E9000106F05AFA0390A168206806F0CF
:102FE00055FA0290E168206806F050FA0190E16815
:102FF000084606F04BFA00903846009906F016F89D
:1030000083464FF0804106F041FA06464FF07E516C
:1030100006F06AFB28605046019906F0F7FB064669
:103020004FF0804106F032FA68600299049805F08A
:10303000FDFF06464FF0804106F028FAA860504692
:10304000019905F0F3FF06464FF0804106F01EFAA5
:10305000E8604846009905F0E9FF83464FF080415B
:1030600006F014FA06464FF07E5106F03DFB28614B
:103070004046039906F0CAFB06464FF0804106F031
:1030800005FA68610299049806F0C0FB06464FF005
:10309000804106F0FBF9A8614046039905F0C6FFA0
:1030A00006464FF0804106F0F1F9E861394648469E
:1030B00005F0BCFF83464FF0804106F0E7F9064675
:1030C0004FF07E5106F010FB286205B0BDE8F08F8E
:1030D0002DE9F04704460D46A168206806F0D6F9B0
:1030E0000746E168606806F0D1F98046394606F087
:1030F0008DFB06464FF0804106F0C8F92860D4E900
:10310000020106F0C3F90746D4E9000106F0BEF952
:103110008046394605F08AFF06464FF0804106F0AA
:10312000B5F96860A168084606F0B0F980466168A4
:10313000084606F0ABF98146414605F077FF0746A1
:103140004FF0804106F0A2F906464FF07E5106F09E
:10315000CBFAA860BDE8F08770B58CB006460C4687
:1031600003AD284605F0C0FA054605F10C0005F050
:10317000BBFAA0F10C0505F1180005F0B5FAA0F1B5
:10318000180500BFA06880F00040A06003A9304689
:10319000FFF700FF224603A9684605F0DFFA9DE825
:1031A000070084E80700A06880F00040A0600CB031
:1031B00070BD2DE9F04F8FB00446894692465046C7
:1031C00005F008FFCDE90801D9F80810E06806F01D
:1031D0005DF90490D9F80410A06806F057F903903F
:1031E000606880F000400190D9F8001006F04EF9B8
:1031F0000290039906F00AFB8346049906F006FB49
:10320000059005F0E7FE07460022F74B05F0FAFCB3
:10321000CDE90601DDE9082305F0F4FC05460E467C
:10322000206805F0D7FE2A463346CDE90A0105F0AD
:10323000E7FBCDE90C0105F0B1FB2060504605F03D
:10324000C9FECDE90601D9F80410E06806F01EF9C0
:103250000490D9F80810A06806F018F90390D9F87E
:103260000010206806F012F90290039905F0DEFEC6
:103270008346049906F0CAFA059005F0ABFE0746AE
:103280000022D94B05F0BEFC0546DDE9062305F01A
:10329000B9FCCDE90A01606805F09CFECDE90801A2
:1032A000DDE90A2305F0ACFBCDE90C0105F076FB66
:1032B0006060504605F08EFECDE90801D9F8001097
:1032C000E06806F0E3F80490D9F80810606806F0AA
:1032D000DDF80390D9F80410206806F0D7F80290C2
:1032E000039906F093FA8346049905F09FFE059032
:1032F00005F070FE0022BC4BCDE9060105F082FC12
:103300000746DDE9082305F07DFCCDE90A01A06848
:1033100005F060FE0546DDE90A2305F071FBCDE905
:103320000C0105F03BFBA060504605F053FECDE9D3
:103330000601D9F80010A06806F0A8F80390D9F8A3
:103340000410606806F0A2F88346D9F808102068D7
:1033500006F09CF85946029005F068FE80460399F5
:1033600006F054FA074605F035FE054600229E4B4E
:1033700005F048FCCDE90401DDE9062305F042FC37
:10338000CDE90A01E06805F025FECDE90801DDE997
:103390000A2305F035FBCDE90C0105F0FFFAE060EA
:1033A0000FB0BDE8F08F2DE9F04F85B004460D4613
:1033B00016461F464FF07C51284606F067F88246B5
:1033C00004F020FC80464FF07C51304606F05EF859
:1033D000824604F017FC81464FF07C51384606F0D7
:1033E00055F8824604F00EFC04904FF07C512846BC
:1033F00006F04CF8824604F0D5FF03904FF07C5164
:10340000304606F043F8824604F0CCFF02904FF0BD
:103410007C51384606F03AF8824604F0C3FF01902A
:10342000DDE9021006F032F80090019906F02EF85E
:1034300082464946404606F029F80090049906F075
:1034400025F88346514605F0F1FD2060404602997B
:1034500006F01CF80090019906F018F882464946DB
:10346000039806F013F80090049906F00FF88346CD
:10347000514606F0CBF960604946039806F006F81D
:103480000090019906F002F882464046029905F044
:10349000FDFF0090049905F0F9FF8346514605F0C1
:1034A000C5FDA060DDE9021005F0F0FF0090049971
:1034B00005F0ECFF82464946404605F0E7FF0090E4
:1034C000019905F0E3FF8346514606F09FF9E0605D
:1034D00005B0BDE8F08F2DE9FE4F04460D461646B7
:1034E0001F468DB3A168084605F0D0FF01906168C2
:1034F000084605F0CBFF0090019905F097FD834643
:103500004FF0804105F0C2FF82464FF07E5106F039
:10351000EBF88146D4E9020105F0B8FF8346D4E90F
:10352000000105F0B3FF5946019005F07FFD82468A
:103530004FF0804105F0AAFF4946029004F034FAAA
:103540008046FFF79BFC2860C6B1E168606805F023
:103550009DFF8346A168206805F098FF59460290B8
:1035600006F054F982464FF0804105F08FFF814606
:10357000FFF70CFC8046FFF781FC30608FB3616879
:10358000084605F083FF01902168084605F07EFF9C
:103590000090019905F04AFD83464FF0804105F007
:1035A00075FF82464FF07E5106F030F90290E168D7
:1035B000206805F06BFF8346D4E9010105F066FF42
:1035C0005946019006F022F982464FF0804105F0FD
:1035D0005DFF8146029904F0E7F98046FFF74EFC53
:1035E0003860BDE8FE8F00000000E03F00B585B008
:1035F000684602F090F84F490098B0FBF1F04E4950
:10360000086005B000BD4D480068401C4B4908608B
:103610004B480088401C4A49088008464088401CA6
:10362000488008468088401C88800846C088401C26
:10363000C88008460089401C0881704700BF3F4889
:1036400001684FF0E02082693C4800688142F6D171
:103650003948006800EB4003C3EBC010C2EBC00068
:10366000354B1B68B0FBF3F001EB4103C3EBC11317
:1036700000EBC300704730B50446FFF7DFFF054697
:1036800000BFFFF7DBFF401BA042FAD330BD10B5EF
:10369000044603E04FF47A70FFF7EDFF2000A4F139
:1036A0000104F7D110BD70B54FF4407001F016FD64
:1036B000FFF79CFF234800684FF47A72B0FBF2F1E9
:1036C000481EB0F1807F00D31BE0481E4FF0E0227F
:1036D000506150170F22002807DA13071D0E1A4BEE
:1036E00000F00F04241F1D5503E013071C0E174B99
:1036F0001C5400BF00204FF0E022906107201061B1
:1037000000BF00F03EF800F0A1FC50220421104858
:1037100000F073FD45F6C05000F0B6FE4FF41650B1
:1037200001F0DEFB01F014FA03F0F7F901F071F992
:1037300070BD000040420F00380000203C00002017
:10374000A80000208800002018ED00E000E400E060
:103750003C030020704700BFFEE700BFFEE700BF4C
:10376000FEE77047704710B5FFF74DFF10BD70477B
:1037700010B5024801F017FC10BD000071000020D8
:10378000704708B50121082002F032F84020ADF85A
:10379000000003208DF8020014208DF80300694614
:1037A000E84801F069FD8020ADF8000003208DF8A5
:1037B000020014208DF803006946E24801F05CFD28
:1037C00008BD704700B501464020DE4A1432106043
:1037D0000846FFF7F6FF8020DA4A143210600846E8
:1037E000FFF7EFFF4020D74A103210600846FFF77E
:1037F000E8FF8020D34A103210600846FFF7E1FF4F
:1038000000BD00B501464020CE4A14321060084683
:10381000FFF7D7FF8020CB4A103210600846FFF731
:10382000D0FF4020C74A103210600846FFF7C9FF9A
:10383000C4480830006800F0800040B14020C14A10
:10384000143210600846FFF7BCFF002000BD402086
:10385000BC4A143210600846FFF7B3FF0120F5E7B9
:1038600010B5024608231DE04020B64C14342060F9
:103870001046FFF7A6FF01F0800018B18020241F3A
:10388000206003E08020AF4C143420604806010E15
:103890001046FFF796FF4020AA4C103420601046D7
:1038A000FFF78FFF1800A3F10104E3B2DCD1402041
:1038B000A44C1434206010BD00B501468020A14AFC
:1038C00010321060402010600846FFF77AFF9D48D4
:1038D0000830006808B9012000E0002000F08000F6
:1038E00008B1002000BD8020964A143210600846BE
:1038F000FFF767FF93480830006800F0800008B1C8
:103900000020EFE780208F4A143210600846FFF74E
:1039100058FF0120E6E7F0B506460F4614461D465F
:103920003046FFF7C9FF08B90020F0BD39463046E0
:10393000FFF796FF3046FFF764FF20B93046FFF7E8
:1039400041FF0020F1E721463046FFF789FF30466E
:10395000FFF757FF29463046FFF782FF3046FFF753
:1039600050FF3046FFF72EFF0120DEE700B501468D
:103970004020744A143210600846FFF722FF80206E
:10398000704A103210600846FFF71BFF40206D4A56
:10399000103210600846FFF714FF4020694A1432C5
:1039A00010600846FFF70DFF00BD10B50246082362
:1039B00000218020634C1034206016E04806010E80
:1039C0004020604C143420601046FFF7FAFE40207F
:1039D000241F20601046FFF7F4FE5A4808300068A4
:1039E00000F0800008B141F001011800A3F10104CA
:1039F000E3B2E3D14020534C14342060084610BD9C
:103A0000F0B506460C4615463046FFF755FF08B997
:103A10000020F0BD21463046FFF722FF3046FFF779
:103A2000F0FE20B93046FFF7CDFE0020F1E7294631
:103A30003046FFF715FF3046FFF7E3FE3046FFF74D
:103A40003BFF601CC1B23046FFF70AFF3046FFF76C
:103A5000D8FE3046FFF7A9FF07463046FFF786FF3E
:103A60003046FFF7AFFE3846D3E700B501464020A9
:103A7000344A143210600846FFF7A3FE8020314A12
:103A8000143210600846FFF79CFE40202D4A103289
:103A900010600846FFF795FE40202A4A1432106055
:103AA0000846FFF78EFE00BD2DE9F04381460E4625
:103AB00017461C46DDF81C80B8F1010F02DA002021
:103AC000BDE8F0834846FFF7F7FE08B90020F7E7A6
:103AD00031464846FFF7C4FE4846FFF792FE20B93C
:103AE0004846FFF76FFE0020EAE739464846FFF7F1
:103AF000B7FE4846FFF785FE4846FFF7DDFE701C1F
:103B0000C1B24846FFF7ACFE4846FFF77AFE0125F2
:103B100009E04846FFF749FF04F8010B4846FFF764
:103B2000A4FF681CC5B24545F3DB4846FFF73DFFDF
:103B300004F8010B4846FFF719FF4846FFF742FE1D
:103B40000120BDE7000C014010B504462046FFF7F8
:103B500017FE0446A01C04F0F8FD841E04F10800C2
:103B600004F0F3FDA0F1080404F11C0004F0BCFD16
:103B7000A0F11C0404F1280004F0B6FDA0F1280413
:103B800004F1340004F0B0FDA0F13404204610BD6F
:103B900030B50346C822002007E000BF1400A2F1A0
:103BA0000105AAB2FAD1441CE0B28842F5DB30BD6F
:103BB0002DE9F04107460D4616462A2E15D006DCA3
:103BC000052E0CD00A2E0CD0142E16D10BE0622E2E
:103BD0000DD0BC2E0DD0B6F5807F0ED10BE00624A3
:103BE0000DE005240BE0042409E0032407E002248F
:103BF00005E0012403E0002401E0022400BF00BF2F
:103C000080236B22D0213846FFF785FE05213846F8
:103C1000FFF7BEFF4FF47A7090FBF5F0401E00F006
:103C2000FF0843461922D0213846FFF774FE0323CC
:103C30006B22D0213846FFF76EFE02233722D021B7
:103C40003846FFF768FE23461A22D0213846FFF790
:103C500062FE18231B22D0213846FFF75CFE10239A
:103C60001C22D0213846FFF756FEBDE8F0812DE931
:103C7000F0410446207800286AD0EA48007800F035
:103C8000010048B9E74803F042FD28B1E64804F0D6
:103C90002BFDE448AFF30080E448008880B900239E
:103CA0001A461946A01C04F055FD00231A46194671
:103CB000DD4804F01EFD0120DC490880BDE8F081EC
:103CC00004F11C01D84804F02CFDD8480088C8280D
:103CD00039D1D648008805F091FB0646D2490868DC
:103CE000314605F017FA054605F00AFB00B2608080
:103CF000CE48008805F082FB0646CB49486831462D
:103D000005F008FA054605F0FBFA01B2A180C748A4
:103D1000008805F073FB0746C3498868394605F0FB
:103D2000F9F906464FF08B4105F070FD054605F0A8
:103D3000E7FA01B2E1800020BC4908802070BC484D
:103D4000FEF7E7FFBAE7B9480088401CB74908808A
:103D500000BFB3E72DE9FC4104463C22D0212046B8
:103D6000FFF74EFEA0733B22D0212046FFF748FE0E
:103D7000E073A17BE07B41EA00206188401A00B239
:103D8000ADF800003E22D0212046FFF739FE207416
:103D90003D22D0212046FFF733FE6074217C607CF9
:103DA00041EA0021A088081A00B2ADF802004022C2
:103DB000D0212046FFF724FEA0743F22D0212046C8
:103DC000FFF71EFEE074A17CE07C41EA0021E08860
:103DD000081A00B2ADF80400BDF9040005F0F6FAC7
:103DE0000546BDF9020005F0F1FA0646BDF90000EE
:103DF00005F0ECFA07462B463246394604F11C0022
:103E000004F077FC2046FFF732FFBDE8FC8170B577
:103E10000446607800286ED08648007800F00100E3
:103E200048B9844803F073FC28B1834804F05CFC73
:103E30008048AFF300808148008880B900231A468B
:103E4000194604F1080004F085FC00231A461946BF
:103E5000794804F04EFC01207849088070BD04F1D7
:103E60002801754804F05DFC74480088C8283DD1DD
:103E70007248008805F0C2FA06466F490868314664
:103E800005F048F9054605F03BFA00B220816B4881
:103E9000008805F0B3FA064667494868314605F0E0
:103EA00039F9054605F02CFA01B2618163480088B2
:103EB00005F0A4FA064660498868314605F02AF9FB
:103EC000054605F01DFA01B2A18100205B4908807A
:103ED00060705B48007A28B901215948417201207D
:103EE000574908725248FEF72CFFB7E7534800883D
:103EF000401C5249088000BFB0E72DE9FC41044650
:103F00004422D0212046FFF77BFD20754322D0219B
:103F10002046FFF775FD6075217D607D41EA002038
:103F20002189401A00B2ADF800004622D021204677
:103F3000FFF766FDA0754522D0212046FFF760FD02
:103F4000E075A17DE07D41EA00216089081A00B298
:103F5000ADF802004822D0212046FFF751FD20761F
:103F60004722D0212046FFF74BFD6076217E607E00
:103F700041EA0021A089081A00B2ADF80400BDF999
:103F8000040005F023FA0546BDF9020005F01EFA0B
:103F90000646BDF9000005F019FA07462B463246E1
:103FA000394604F1280004F0A4FB2046FFF72FFF58
:103FB000BDE8FC8110B5D1E90834CA6980E81C006D
:103FC00010BD10B5D1E90B348A6A80E81C0010BD21
:103FD0000FB470B505460C461A49069805F056FA16
:103FE0000646FEF744FF60631649079805F04EFA4F
:103FF0000646FEF73CFFA0631249089805F046FA12
:104000000646FEF734FFE063D4E90E12606B85E8E4
:10401000070070BC5DF814FB10B50B48FFF794FD6A
:1040200010BD0000400000202403002044000020B8
:104030003400002048000020300300204C00002005
:104040009C0000208DC1793DE402002000B587B0BE
:104050000121082001F0CCFB0121042001F0C8FB64
:104060000121880301F0D1FB4FF46040ADF804005A
:1040700001208DF8060018208DF8070001A941489D
:1040800001F0FAF84FF48070ADF8040001208DF8CB
:10409000060010208DF8070001A93B4801F0ECF85C
:1040A0004FF48050ADF8040001208DF80600102078
:1040B0008DF8070001A9334801F0DEF84FF4805174
:1040C000304801F086F90020ADF808004FF4827006
:1040D000ADF80A000020ADF80C00ADF80E00ADF808
:1040E00010004FF40070ADF812000820ADF8140075
:1040F0000020ADF816000720ADF8180002A92348EB
:1041000003F000F90121214803F0A1F907B000BD37
:1041100070B505460C4600BF02211C4803F01BFA8F
:104120000028F9D02146194803F0C2F900BF012147
:10413000164803F010FA0028F9D0144803F0BAF931
:10414000C0B270BD10B504464FF480710E4801F046
:1041500040F910BD10B504464FF480710A4801F0D3
:104160003AF910BD10B504464FF48051054801F0EE
:1041700030F910BD10B504464FF48051014801F0EC
:104180002AF910BD000C0140000801400038004031
:104190002DE9F04105460E4614462846FFF7EAFF92
:1041A00031462846FFF7B4FF074621462846FFF769
:1041B000AFFF2846FFF7D6FF3846BDE8F0812DE96E
:1041C000F0470746884615461E463846FFF7D2FF99
:1041D00041463846FFF79CFF8146002405E0295DF3
:1041E0003846FFF795FF601CC4B2B442F7DB38468F
:1041F000FFF7B8FF4846BDE8F08770B505460C46A6
:1042000016462846FFF7A6FF05239C4A2A21284682
:10421000FFF7D5FF05239A4A30212846FFF7CFFF45
:10422000012221212846FFF7B3FF0122222128463F
:10423000FFF7AEFF1A2224212846FFF7A9FF3246D6
:1042400025212846FFF7A4FF0F2226212846FFF745
:104250009FFF012C0AD1FF2231212846FFF798FF4A
:104260000F2220212846FFF793FF51E0022C0AD1AC
:10427000FF2231212846FFF78BFF0E2220212846FE
:10428000FFF786FF44E0032C21D1FF22E1212846DD
:10429000FFF77EFFFF22E2212846FFF779FF0F227A
:1042A00020212846FFF774FF50212846FFF730FFF2
:1042B00073212846FFF72CFF01223C212846FFF7F7
:1042C00067FF06223D212846FFF762FF20E00E220D
:1042D00020212846FFF75CFFFF22E1212846FFF757
:1042E00057FFFF22E2212846FFF752FF50212846C0
:1042F000FFF70EFF73212846FFF70AFF01223C213A
:104300002846FFF745FF06223D212846FFF740FFDC
:104310002846FFF717FF70BD70B506460C461546D8
:104320003046FFF717FF0523554A2A213046FFF78D
:1043300046FF2B462246A0213046FFF740FF30467D
:10434000FFF700FF70BD70B506460C4615463046B7
:10435000FFF700FF2B462246A8213046FFF72FFF2C
:104360003046FFF7EFFE70BD2DE9F047074688465F
:1043700015461E463846FFF7FDFE41463846FFF714
:10438000C7FE8146002406E000213846FFF7C0FE44
:104390002855601CC4B2B442F6DB3846FFF7E2FE93
:1043A0004846BDE8F0877CB505460523344A3021F0
:1043B0002846FFF704FF05236A4610212846FFF729
:1043C000D3FF002408E01DF804002D49095D884250
:1043D00000D003E0601CC4B2052CF4DB00BF052C48
:1043E00001D101207CBD0020FCE770B504460D46DC
:1043F0002046FFF7BFFE29462046FFF789FE002131
:104400002046FFF785FE06462046FFF7ABFE304606
:1044100070BD70B5054607212846FFF7E6FF044644
:1044200004F04000C0B160212846FFF7DEFF0646D9
:10443000212E0BDA33462A4661212846FFF794FFE6
:10444000324629460F48FCF760FB04E0FF22E221D8
:104450002846FFF79DFE00BF04F0100038B104F0BD
:10446000010020B1FF22E1212846FFF791FE2246FC
:1044700027212846FFF78CFE70BD00005300002066
:104480004E0000208001002030B589B00546012192
:104490000C2001F0ADF90F20ADF8040003208DF8D9
:1044A000060018208DF8070001A96D4800F0E4FE11
:1044B0000320ADF8040001A96A4800F0DDFE00BF4A
:1044C0000121084601F0A1F94FF47A70684366496A
:1044D0000968B1FBF0F0401E84B240F2E730ADF85D
:1044E0001C00ADF818400020ADF81E00ADF81A0011
:1044F00006A94FF0804001F0B3FA6020ADF8080043
:104500000120ADF80A000020ADF80E00ADF8100053
:1045100002A94FF0804001F0E0FA0821C80601F03E
:104520002BFF02A94FF0804001F019FB0821C806BB
:1045300001F02BFF02A94FF0804001F05DFB082144
:10454000C80601F02FFF02A94FF0804001F09FFB49
:104550000821C80601F02FFF0121880701F0DCFEC9
:104560000121880701F0D8FD0121022001F04DF959
:104570003D4800683D49B0FBF1F0401E84B240F276
:10458000E730ADF81C00ADF818400020ADF81E0073
:10459000ADF81A0006A9364801F062FA6020ADF8BD
:1045A00008000120ADF80A000020ADF80E00ADF8BB
:1045B000100002A92E4801F01FFB08212C4801F031
:1045C000F1FE02A92A4801F062FB0821284801F007
:1045D000F2FE0121264801F09FFE0121244801F04E
:1045E0009BFD09B030BD0246002014E031F91030C7
:1045F000B3F57A7F04DA4FF47A7321F8103008E0CB
:1046000031F91030B3F5FA6F03DD4FF4FA6321F896
:104610001030431CD8B20628E8DB0888A0F57A7071
:104620004FF0804398864888A0F57A70104B3C3351
:1046300018808888A0F57A704FF080439887C888E2
:10464000A0F57A700A4B403318800889A0F57A707B
:104650001B0618874889A0F57A70064B18807047AA
:1046600000080140000C01408800002000366E0167
:104670000004004040000040034606210622F7489F
:104680000188F7480288ABB1012B1BD13AB94EF62D
:10469000EE60814201D1002070470120FCE739B96A
:1046A0004EF6EE60824201D10120F5E70020F3E7EB
:1046B000AB20F1E709B90020EEE70AB90120EBE7EA
:1046C000AB20E9E70020E7E770B5042600240120CD
:1046D000FFF7D2FF0446AB2C06D1E04800EB842064
:1046E000E0490860AB2070BDDC4800EB8420DD4968
:1046F0000860601CD949891E01EB80250CE0D9486F
:1047000000680068401C10B904263046EBE7D54825
:104710000068001DD3490860D2480068A842EED363
:104720008020E0E710B50424CC4802F03BFA0446B0
:10473000042C01D0204610BD0021C84802F035FBF2
:104740000446042C01D02046F5E7C54802F02AFAB9
:1047500004462046EFE72DE9F04104460F460425C4
:104760000026DFF804830120FFF786FF0646AB2E04
:1047700001D1BDE8F081701CB849891E01EB802889
:1047800021E0B84800680068401CB8B93946B5480F
:10479000006802F00AFB0546042D01D02846E8E730
:1047A0002146B0480068801C02F0FFFA0546AD487B
:1047B0000068001DAB4908602846DAE7A948006890
:1047C000001DA8490860A74800684045D9D380204B
:1047D000CFE72DE9F04706460F46002545F255582C
:1047E0004FF001099D4CA2460020FFF745FF05460A
:1047F000AB2D01D1BDE8F087984800EB852A994898
:104800000068841E0AE0B4F80080B04505D134F891
:10481000020C38804FF0000904E0241F0AF1020066
:104820008442F0D800BF4846E4E72DE9F0474FF056
:10483000060A062600250027A8464FF0FF398748BC
:10484000B0F800A0864806885FEA0A0075D0A0F597
:104850006E40EE3858B3A0F58850113800286DD15D
:1048600046B97E4802F09EF90446042C1ED020462C
:10487000BDE8F0874EF6EE60864210D1774802F030
:1048800091F90446042C01D02046F1E70021744838
:1048900002F08BFA0446042C08D02046E8E7FFF724
:1048A00041FF0446042C01D02046E1E7AEE07EBB88
:1048B000002522E06948C0886C4931F8151088420B
:1048C00001D10FFA85F94D4515D0684931F8150029
:1048D0006749FFF77EFF8046B8F1010F0BD06349AF
:1048E00031F8150062490988FFF735FF0746042FA4
:1048F00001D03846BCE7681C85B2192DDADB0021EF
:10490000564802F052FA0446042C02D02046AFE783
:1049100007E0534802F046F90446042C1FD0204615
:10492000A6E74FF6FF70864212D14D4802F03AF9E1
:104930000446042C03D020469AE711E05EE00021F3
:10494000464802F032FA0446042C08D020468FE78D
:10495000FFF7E8FE0446042C01D0204688E755E026
:1049600036B9FFF7DFFE0446042C46D020467FE729
:104970004FF6FF70864207D1394802F013F904461A
:10498000042C3AD0204673E7002523E03448801DEC
:104990000088364931F81510884201D10FFA85F99F
:1049A0004D4515D0314931F815003149FFF711FF58
:1049B0008046B8F1010F0BD02C4931F815002C4975
:1049C0000988FFF7C8FE0746042F01D038464FE795
:1049D000681C85B2192DD9DB0021214802F0E5F9C8
:1049E0000446042C01D0204642E71C4802F0DAF8C5
:1049F0000446042C01D020463AE707E0FFF792FE78
:104A00000446042C01D0204632E700BF00BF04203A
:104A10002EE710B5FFF709FF0446FFF755FE2046C5
:104A200010BD2DE9F84F074689460425DFF830A070
:104A3000AAF1010A094800904FF00008002400265E
:104A40004FF0000B0020FFF717FE8046B8F1010F72
:104A500010D1DFF808A00248009016E0000001081D
:104A60000004010860000020FF070108DE9900082B
:104A70005C000020B8F1000F04D1DFF8C4A0314879
:104A8000009002E0AB20BDE8F88F4EF6EE61504694
:104A900002F08BF90546042D01D02846F3E7FFF715
:104AA00013FE49463846FFF756FE0646042E01D04F
:104AB0003046E8E700241CE0234830F81400B842F0
:104AC00015D0214931F814002049FFF782FE8346B2
:104AD000BBF1010F0BD01C4931F814001B490988A8
:104AE000FFF739FE0646042E01D03046CBE7601CA6
:104AF00084B2192CE0DB009802F054F80546042D2E
:104B000001D02846BFE70021504602F04EF9054685
:104B1000042D01D02846B6E72846B4E770B505460F
:104B20000E46002431462846FFF715FE0446802C29
:104B300004D131462846FFF774FF0446204670BD75
:104B40000004010800000108DE9900085C00002054
:104B500008B50121102000F04BFE0121102000F0CB
:104B600047FE10208DF8030003208DF802004FF45B
:104B70008040ADF800006946154800F07DFB4FF419
:104B80000050ADF800006946114800F075FB08BD03
:104B900010B504464FF480410D4800F01AFC10BDDA
:104BA00010B504464FF40051094800F012FC10BD46
:104BB00010B504464FF48041054800F00CFC10BDD0
:104BC00010B504464FF40051014800F004FC10BD3C
:104BD0000010014010B5044601235822EE21204662
:104BE000FEF799FE10BD7CB5054600200190002619
:104BF000002418E002200090A02000EB4400C2B284
:104C000001ABEE212846FEF74FFF3044C6B29DF8B7
:104C100005009DF8041040EA012105F1100020F87C
:104C20001410601CC4B2082CE4DB082E01D1012052
:104C30007CBD0020FCE710B5044601231E22EE21B6
:104C40002046FEF768FE10BD10B504460A20FEF7A8
:104C50001EFD2046FFF7EFFF0320FEF718FD20465C
:104C6000FFF7C1FF2046FFF7B5FF10BD10B50446A2
:104C700001234822EE212046FEF74DFE10BD38B537
:104C80000446032004F120030022EE210090204678
:104C9000FEF70AFF38BD2DE9F04F8BB004464FF008
:104CA0000008C14694F8200001042120005D41EA7B
:104CB00000202221095D0843A06094F8230001042C
:104CC0002420005D41EA00202521095D0843E060C1
:104CD000608BA168A1EB0025A08A00040022218B33
:104CE0004FEAE57CA1FB05BE02FB05E301FB0C33AB
:104CF0004FEADB1141EA4361401842EBE312CDE990
:104D00000802608A4FEAC0304246E18A4FEAE57CF9
:104D1000A1FB05BE02FB05E301FB0C334FEA1B219F
:104D200041EA0361401842EB2322CDE90602A08B41
:104D300042464FEAE573A0FB051C02FB05C200FBDF
:104D400003204FEA402242EAD1504FF4FA6147185B
:104D5000B7F5FA6F19DAA7F5FA66764306EB86001F
:104D60004FEA600806EB86004FEAA00954488742E4
:104D70000BDA07F2DC567643072000FB068806EBC9
:104D8000460000EBC60009EB6009DDE90801B0EB65
:104D9000080061EBE871CDE90801DDE90601B0EB3F
:104DA000090061EBE971CDE906014FF00003E1680C
:104DB000DDE9062CA1FB020B03FB02B201FB0C2276
:104DC0004FEA505141EAC22C4FEA6251DDE9080234
:104DD000BCEB000061EB0201C00B40EA414A5046C7
:104DE00004F0F4FA3749019004F094F98346364808
:104DF00002905846029902F0C7FF4FF07E5103908F
:104E000004F072FC3149049004F040FB059004F07A
:104E100077FA8246606818B16068AAEB00002060EB
:104E20002B480078B0B12A480078401E2849087005
:104E300008460078C82804DA264800685044254906
:104E400008602348007828B922480068C72190FBF1
:104E5000F1F060600BB0BDE8F08F38B50446032078
:104E600004F123030022EE2100902046FEF71CFEF1
:104E700038BD10B504461848006860B12046FFF7F9
:104E8000ECFF2046FFF7A6FE2046FFF704FF0020B8
:104E90001149086008E02046FFF7F1FE2046FFF7C1
:104EA000E5FE01200C49086010BD01460868704706
:104EB00010B50A4C2046FEF763FC044600BF10BD47
:104EC00024FAFFFF80E6C547B1DC423ED048874A5E
:104ED000700000206C000020680000203C050020CD
:104EE00010B588B004460121880400F08EFC012131
:104EF000082000F07DFC4FF48060ADF80400032032
:104F00008DF8060018208DF8070001A96E4800F002
:104F1000B3F94FF40060ADF8040003208DF80600EB
:104F200004208DF8070001A9674800F0A5F9049452
:104F30000020ADF81400ADF81600ADF81800ADF87B
:104F40001C000C20ADF81A000020ADF80800ADF8E8
:104F50000A004FF40070ADF80C000020ADF80E0010
:104F600004A95A4801F0F9FB02A9584801F06AFC6B
:104F7000012240F22551554801F087FC0121534898
:104F800001F077FC27208DF8000001208DF801004A
:104F900000208DF8020001208DF80300684600F023
:104FA000A2F808B010BD01464848008800F008008B
:104FB00020B1464A121D1288D0B200BF4348008873
:104FC00000F08000F0B141480C30008800F0800013
:104FD000C0B13F4802780078401C3D4B18703D48F6
:104FE000805C3A4A121D1080184600783A4A1278BE
:104FF000904207D135480C30008820F08000334AB9
:105000000C3210803148008800F0200020B12F4A77
:10501000121D1288D0B200BF704770B505460C460D
:105020002D4801780078401C2B4A107029484454C0
:1050300026480C30008800F0800028B9012240F298
:105040002771224801F021FC70BD70B505460C4661
:1050500014E020780D2804D10D212846FFF7DDFF4C
:105060000BE020780A2804D10A212846FFF7D5FF53
:1050700003E021782846FFF7D0FF641C2078002841
:10508000E7D170BD2DE9F04106460C4615460020DB
:105090000AE0225C10490B780978491C0E4F3970E0
:1050A0000C49CA54411CC8B2A842F2DB07480C3074
:1050B000008800F0800028B9012240F227710348DF
:1050C00001F0E3FBBDE8F081000C01400048004026
:1050D0007200002064050020730000203149014364
:1050E000314A1160704770B5002100230F22C47847
:1050F00004B32D4C246804F4E064C4F5E064210A90
:10510000C1F10403CA40447804FA03F184781440DE
:1051100021430901254C0678A155047804F01F05A8
:105120000124AC4005786D11AD0005F1E025C5F80E
:10513000004109E0047804F01F050124AC401C4D37
:105140000678761145F8264070BD1A4A0A40024397
:10515000154B1B1F1A60704739B1134A121D126894
:105160000243114B1B1D1A6006E00F4A121D126804
:1051700082430D4B1B1D1A607047042808D14FF065
:10518000E021096941F004014FF0E022116107E0DC
:105190004FF0E021096921F004014FF0E022116194
:1051A000704700000000FA050CED00E000E400E0AC
:1051B00080E100E080FFFF1F10B50446CC48844228
:1051C00008D10121042000F02DFB0021042000F073
:1051D00029FB46E0C748844208D10121082000F09D
:1051E00021FB0021082000F01DFB3AE0C248844268
:1051F00008D10121102000F015FB0021102000F043
:1052000011FB2EE0BD48844208D10121202000F08E
:1052100009FB0021202000F005FB22E0B848844271
:1052200008D10121402000F0FDFA0021402000F0CB
:10523000F9FA16E0B348844208D10121802000F039
:10524000F1FA0021802000F0EDFA0AE0AE48844235
:1052500007D10121801500F0E5FA0021A01500F02A
:10526000E1FA10BD10B50121084600F0DBFA00217B
:10527000012000F0D7FA10BD2DE9F04102460025CB
:105280000026002000230024002791F803C00CF022
:105290000F0591F803C00CF0100CBCF1000F03D007
:1052A00091F802C04CEA050591F800C0BCF1000F6E
:1052B00031D0146800202BE04FF0010C0CFA00F301
:1052C000B1F800C00CEA03069E4220D183004FF0E3
:1052D0000F0C0CFA03F7BC4305FA03FC4CEA040478
:1052E00091F803C0BCF1280F06D14FF0010C0CFA65
:1052F00000FCC2F814C00AE091F803C0BCF1480FEA
:1053000005D14FF0010C0CFA00FCC2F810C0401C93
:105310000828D1D31460B1F800C0BCF1FF0F34DD10
:10532000546800202EE000F1080C4FF0010808FA44
:105330000CF3B1F800C00CEA03069E4221D18300B1
:105340004FF00F0C0CFA03F7BC4305FA03FC4CEAD0
:10535000040491F803C0BCF1280F05D100F1080C3A
:1053600008FA0CF8C2F8148091F803C0BCF1480F99
:1053700007D100F1080C4FF0010808FA0CF8C2F848
:105380001080401C0828CED35460BDE8F0814FF651
:10539000FF710180022181700421C17070470246B3
:1053A000002093680B400BB1012000E00020704703
:1053B0000146886880B2704702460020D3680B40DF
:1053C0000BB1012000E0002070470146C86880B2A0
:1053D000704701617047416170470AB1016100E0A7
:1053E00041617047C16070474FF480320A43826167
:1053F0008161826182698269704702460020434B65
:1054000018684FF68073184040EA021008433F4B7B
:10541000186070473E49C8617047F0B50A460023DE
:1054200000240021002500F00046B6F1004F02D113
:10543000364EF16901E0354E7168C0F3034583B221
:1054400000F44016B6F5401F08D121F070612F4ED0
:10545000766826F070662D4F7E6012E000F48016AC
:10546000B6F5801F06D1032606FA05F4A14341F0E4
:10547000706106E0460D360103FA06F6B14341F0CD
:10548000706122B1460D360103FA06F6314300F091
:105490000046B6F1004F02D11C4EF16101E01B4EF7
:1054A0007160F0BD30B500228B071C0F0F2303FA8B
:1054B00004F2164B08338C1053F824309343134CEA
:1054C00008348D1044F8253023468C1053F82430CE
:1054D0008C07240F00FA04F423430C4C08348D107D
:1054E00044F8253030BD0A49DC31086070470000BF
:1054F00000080140000C0140001001400014014070
:1055000000180140001C0140002001400000014043
:1055100000002042DF48006840F00100DD490860DB
:1055200008464068DC490840DA4948600846006897
:10553000DA490840D74908600846006820F480200E
:1055400008600846406820F4FE0048604FF41F00E1
:1055500088607047CF49096821F48031CD4A1160D5
:105560001146096821F480211160B0F5803F03D015
:10557000B0F5802F0ED106E0C649096841F48031AC
:10558000C44A116007E0C349096841F4A021C14A37
:10559000116000E000BF00BF704710B50146002257
:1055A000002300204A11012A02D1BA4C236806E0E8
:1055B000022A02D1B74C236A01E0B64C636A01F0BB
:1055C0001F02012494401C400CB1012000E0002087
:1055D00010BD38B5002000900024002500BF312008
:1055E000FFF7DBFF05460098401C00900098B0F5DF
:1055F000A06F01D0002DF2D03120FFF7CEFF08B10F
:10560000012400E00024204638BD01460020A14AC4
:10561000106820F0F80040EAC10010607047A0490F
:1056200008607047024600209A4B586820F47C10AE
:1056300042EA01031843974B58607047984908663F
:10564000704701460020934A506820F00300084349
:10565000506070478F48406800F00C00704701466A
:1056600000208C4A506820F0F000084350607047DA
:1056700001460020874A506820F4E06008435060EB
:10568000704701460020834A506820F4605040EA89
:10569000C1005060704729B17E4A527A02437D4B67
:1056A0005A7204E07B4A527A82437A4B5A727047AC
:1056B0007B49D8310860704701460020754A506820
:1056C00020F440400843506070470021714A203266
:1056D0001170704A82F82010012802D004280AD1E3
:1056E00004E001216B4A2032117005E00521694A6E
:1056F0002032117000E000BF00BF704769490860A8
:1057000070476449096A0143624A116270476549FA
:1057100044390860704730B500210022002400237E
:105720005C4D6D6805F00C0121B1042905D00829F4
:1057300023D105E05C4D056022E05B4D05601FE074
:10574000544D6D6805F47012524D6D6805F4803447
:10575000022505EB92421CB9544D554305600BE000
:105760004C4D6D6805F400351DB1504D5543056035
:1057700002E04D4D5543056002E04B4D056000BF12
:1057800000BF444D6D6805F0F0010909484D6B5CA0
:105790000568DD4045603F4D6D6805F4E061090A2C
:1057A000434D6B5C4568DD4085603A4D6D6805F49E
:1057B0006051C90A3E4D6B5C4568DD40C560354DA2
:1057C0006D6805F44041890B3A4D6B5CC568B5FBCB
:1057D000F3F5056130BD29B12E4A526902432D4BC4
:1057E0005A6104E02B4A526982432A4B5A6170473E
:1057F00029B1284A92690243264B9A6104E0254A5E
:1058000092698243234B9A61704729B1214AD26938
:105810000243204BDA6104E01E4AD26982431D4BE9
:10582000DA61704729B11B4AD2680243194BDA602A
:1058300004E0184AD2688243164BDA60704729B1F7
:10584000144A12690243134B1A6104E0114A1269A7
:105850008243104B1A617047124940390860704703
:105860000F49C86470470B49C87170470948406ABE
:1058700040F0807007494862704701460020054AA1
:1058800092680A400AB1012000E0002070470149F7
:1058900088727047001002400000FFF8FFFFF6FE1C
:1058A000000042428004424200127A0000093D009A
:1058B000740000208400002010B50446FE48844295
:1058C00008D10121C014FFF7ADFF0021E014FFF75C
:1058D000A9FFC4E0B4F1804F08D101210846FFF7C9
:1058E000AEFF00210120FFF7AAFFB8E0F348844291
:1058F00008D101210220FFF7A2FF00210220FFF7BB
:105900009EFFACE0EE48844208D101210420FFF75D
:1059100096FF00210420FFF792FFA0E0E9488442AF
:1059200008D101210820FFF78AFF00210820FFF796
:1059300086FF94E0E448844208D101211020FFF75B
:105940007EFF00211020FFF77AFF88E0DF488442C5
:1059500008D101212020FFF772FF00212020FFF74E
:105960006EFF7CE0DA48844208D101214014FFF741
:1059700059FF00216014FFF755FF70E0D5488442BD
:1059800009D10121C804FFF74DFF00214FF4002089
:10599000FFF748FF63E0D048844209D101210805A0
:1059A000FFF740FF00214FF48010FFF73BFF56E068
:1059B000CA48844209D101214805FFF733FF00217D
:1059C0004FF40010FFF72EFF49E0C548844208D18C
:1059D00001214020FFF733FF00214020FFF72FFF78
:1059E0003DE0C048844208D101218020FFF727FF15
:1059F00000218020FFF723FF31E0BB48844208D11B
:105A000001218015FFF71BFF0021A015FFF717FFED
:105A100025E0B648844209D101210804FFF702FFBE
:105A200000214FF48030FFF7FDFE18E0B0488442BB
:105A300009D101214804FFF7F5FE00214FF40030A1
:105A4000FFF7F0FE0BE0AB48844208D10121880447
:105A5000FFF7E8FE00214FF48020FFF7E3FE10BDC2
:105A600000220288944B98420ED0994B98420BD05A
:105A7000B0F1804F08D0914B984205D0904B98429E
:105A800002D0904B984204D14FF68F731A404B8846
:105A90001A438D4B984207D08C4B984204D04FF656
:105AA000FF431A40CB881A4302808B8883850B887A
:105AB0000385814B98420BD0854B984208D08B4B85
:105AC000984205D08A4B984202D08A4B984201D125
:105AD0000B7A038601238382704770B5002400226D
