:020000040800F2
:10000000B00C002065620008412700086F620008FC
:1000100043270008472700084B270008000000007E
:100020000000000000000000000000004F27000852
:1000300051270008000000007B62000853270008D9
:100040007F6200087F6200087F6200087F6200080C
:100050007F6200087F6200087F6200087F620008FC
:100060007F6200087F6200087F6200087F620008EC
:100070007F6200087F6200087F6200087F620008DC
:100080007F6200087F6200087F6200087F620008CC
:100090007F6200087F6200087F6200087F620008BC
:1000A0007F6200087F6200087F6200087F620008AC
:1000B0007F6200087F6200087F6200087F6200089C
:1000C0007F6200087F6200087F6200087F6200088C
:1000D0007F6200085B2700087F6200085D27000838
:1000E0007F6200087F6200087F62000800F002F86B
:1000F00000F03CF80AA090E8000C82448344AAF186
:100100000107DA4501D100F031F8AFF2090EBAE883
:100110000F0013F0010F18BFFB1A43F0010318473B
:10012000B87F0000D87F0000103A24BF78C878C19B
:10013000FAD8520724BF30C830C144BF04680C60ED
:10014000704700000023002400250026103A28BF35
:1001500078C1FBD8520728BF30C148BF0B60704739
:100160001FB506F029FA1FBD10B510BD06F04AFAFA
:100170001146FFF7F5FF00F009F806F068FA03B43E
:10018000FFF7F2FF03BC06F069FA000002F081FA03
:10019000044802F0E9F8044800F067F901E000F0D3
:1001A00089F8FCE714000020980000200122C272A8
:1001B000704710B50446607AE0B1207BD0B926487C
:1001C0000078401C2449087008460078012804D0B3
:1001D000142806D028280CD107E0204803F0CEFCD4
:1001E00007E01E4803F0DAFC03E000201A4908701B
:1001F00000BF2AE0607A10B3207B00B31848007873
:10020000401C1749087008460078012804D01428BB
:1002100009D0282812D10DE0104803F0AFFC0F4898
:1002200003F0C4FC0AE00D4803F0B8FC0B4803F0EF
:10023000ADFC03E000200A49087000BF05E0074854
:1002400003F09CFC054803F0A1FC10BD00B5054877
:10025000FFF7ACFF00BD00000000002044000020BC
:10026000010000207C00002010B5304800F0B4FBF5
:100270002E4801F0CBF810BD10B52D4800F0FEF867
:100280002B4800F02DF92B4801F0CEFD10BD704732
:10029000704710B5284801F01EFC274801F000FD0A
:1002A000254801F07AFD214801F056FA2348FFF76E
:1002B00080FF10BD10B522480088012804DBFFF73D
:1002C000D3FF00201E4908801D484088022804DB17
:1002D000FFF7D2FF00201A49488019488088052876
:1002E00004DBFFF7D4FF0020154988801448C0883C
:1002F0000A2804DBFFF7CCFF00201149C880104812
:100300000089142804DBFFF7C4FF00200C49088192
:1003100010BD00210181C180818041800180704732
:1003200000B50748FFF7F5FF00BD000034010020CD
:1003300098000020C4010020820100207C000020E1
:100340008C0000202DE9F04781460C4615462946D1
:100350001D4807F08FFB804641464FF07E5007F066
:10036000CDF90746214607F055F9064631462046A5
:1003700007F0C4F9BDE8F0870FB4F0B58DB00546BD
:100380000F461A9C224617A904A806F0C3FD04A82C
:1003900007C807AB07C321464FF07E5007F0FAFCB1
:1003A0000646324614A901A806F0B4FD01A807C804
:1003B0000AAB07C307AA0AA9284606F0C7FD0DB075
:1003C000F0BC5DF814FB0000DB0FC94010B504461B
:1003D000204600BF0446204606F05AFD044604F1BC
:1003E0000C0006F055FDA0F10C0404F1180006F015
:1003F0004FFDA0F1180404F1240006F049FDA0F11E
:10040000240404F1300006F043FDA0F1300404F1AF
:100410003C0006F02AF9A0F13C0404F1600006F06B
:1004200024F9A0F1600404F188004FF07E510160CE
:100430000021C1608160416000BFA0F188042046B6
:1004400010BD10B504464FF480724FF47A714648DF
:1004500002F0A4FB10BD10B50446444A44492046AE
:10046000FFF770FF4349086010BD10B504462046F1
:10047000FFF7F1FF2046FFF7E4FF10BD3EB504464D
:10048000394802F05DFC384802F02DFD36496846D7
:1004900002F08DFD9DE80700C4E90412E0603249D6
:1004A000684602F07DFD9DE80700C4E90A1260621B
:1004B0003EBD2DE9F04782460C462F490968601A77
:1004C00006F080FE07462D4A2D4B06F08FFE0546AE
:1004D00006F058FD8146284804604846BDE8F0878C
:1004E0002DE9F04395B004460EA806F0C5FC08A817
:1004F00006F0C2FC1F4800680490D4E90A02616A51
:10050000CDE902020191A06B0090214605A8D4E933
:100510000C23FFF731FF05A807C8C4E90D122063BB
:1005200004F130052946284606F0D8FC80461549D6
:1005300007F0A0FA07464FF0974107F0DFF80646AC
:1005400007F0D2F9C4F8980002F06EF80546294683
:100550002046FFF7AEFF814615B0BDE8F08310B529
:100560000948FFF733FF10BD980200200000484201
:100570006F12033B7C000020040000208DEDB5A02D
:10058000F7C6B03E0000C8429800002070B504468F
:100590000E4615462A4604F10F01FE4802F0B2FE4F
:1005A00070BD2DE9F04104460D461646AA20E073C1
:1005B000AA212174EF2161740221A174E5742675CA
:1005C0000027002006E004F10F01095C3944CFB296
:1005D000411CC8B20628F6DB6775082204F10F013A
:1005E0002046FFF7D3FFBDE8F0812DE9F041054635
:1005F0000C4616460027002004E0215C3944CFB2A7
:10060000411CC8B2711E8142F7DCA01910F8010C20
:10061000B84201D0BDE8F0812078AA2802D16078E4
:10062000AF2800D0F6E70021DB488172A0780128CE
:1006300011D12079012801D1D849087020790228E8
:1006400002D10120D54948702079032803D1012027
:10065000D24908704870A078022816D12079012864
:1006600005D128716871A871E871287268722079C3
:10067000A02801D1012028702079A12805D1C848DF
:1006800001F0C2FBC74801F056FDA07803282FD126
:100690002079617941EA0020C349C880A079E179D5
:1006A00041EA0020C0498880207A617A41EA00202E
:1006B000BD490880A07AE17A41EA0020BA49488021
:1006C000207B617B41EA0020B7490881A07BE17B68
:1006D00041EA0020B4494881207C617C41EA002045
:1006E000B1498881A07CE17C41EA0020AE49C88103
:1006F000A07810287ED12179090209B2627941EAF5
:10070000020007F057F98046A84906F0F7FFA44910
:100710000860A179090209B2E27941EA020007F012
:1007200049F98046A14906F0E9FF9D494860217AD0
:10073000090209B2627A41EA020007F03BF98046F9
:100740009A4906F0DBFF96498860A17A090209B24E
:10075000E27A41EA020007F02DF98046934906F05B
:10076000CDFF8F49C861217B090209B2627B41EA52
:10077000020007F01FF980468C4906F0BFFF884948
:100780000862A17B090209B2E27B41EA020007F09C
:1007900011F98046854906F0B1FF81494862217C04
:1007A000090209B2627C41EA020007F003F98046BF
:1007B0007E4906F0A3FF7A498863A17C090209B249
:1007C000E27C41EA020007F0F5F88046774906F03E
:1007D00095FF7349C863217D090209B2627D41EA30
:1007E000020007F0E7F88046704906F087FF6C4981
:1007F000086400E004E0A1783A462846FFF7D1FEFD
:10080000A07811287ED12179090209B2627941EAE2
:10081000020007F0CFF88046644906F06FFF604998
:100820004865A179090209B2E27941EA020007F0BC
:10083000C1F880465D4906F061FF59498865217A13
:10084000090209B2627A41EA020007F0B3F8804671
:10085000564906F053FF5249C865A17A090209B208
:10086000E27A41EA020007F0A5F880464F4906F017
:1008700045FF4B490867217B090209B2627B41EAC7
:10088000020007F097F88046484906F037FF4449D0
:100890004867A17B090209B2E27B41EA020007F046
:1008A00089F88046414906F029FF3D498867217C47
:1008B000090209B2627C41EA020007F07BF8804637
:1008C0003A4906F01BFF3649C1F88C00A17C0902A9
:1008D00009B2E27C41EA020007F06CF88046334935
:1008E00006F00CFF2E49C1F89000217D090209B2E3
:1008F000627D41EA020007F05DF880462B4906F070
:10090000FDFE00E007E02649C1F89400A1783A46D0
:100910002846FFF746FEA078122834D12179090233
:1009200009B2627941EA020007F044F880461F49A3
:1009300006F0E4FE1A49C1F8A800A179090209B23B
:10094000E27941EA020007F035F88046174906F0DF
:10095000D5FE1349C1F8AC00217A090209B2627AC6
:1009600041EA020007F026F88046104906F0C6FE6C
:100970000B49C1F8B000A1783A462846FFF711FEAE
:10098000084801F0D8FBA078132813D1A1783A4683
:1009900028460DE0F00200207C0000209802002094
:1009A000C4010020140000208201002000007A44CD
:1009B000FFF7F7FDA078142804D1A1783A4628461D
:1009C000FFF7EFFDA078152804D1A1783A46284614
:1009D000FFF7E7FD00BF1DE610B50446FB4802F037
:1009E0000EFD10BD2DE9FC5F04460E4617469846E5
:1009F000DDE90CAB0025AA2229466D1C04F10F008D
:100A0000425429466D1C425406F10F00C2B22946D9
:100A10006D1C04F10F004254002229466D1C425403
:100A2000EB49384607F026F8009006F05DFF00B26B
:100A300001909DF8052029466D1C04F10F004254D9
:100A40009DF8042029466D1C4254E149404607F0B8
:100A500011F8009006F048FF00B201909DF80520C3
:100A600029466D1C04F10F0042549DF804202846CD
:100A7000691CCDB204F10F010A54D549504606F065
:100A8000F9FF009006F030FF00B201909DF80520BC
:100A90002846691CCDB204F10F010A549DF80420C8
:100AA0002846691CCDB204F10F010A54C8495846C2
:100AB00006F0E0FF009006F017FF00B201909DF8ED
:100AC00005202846691CCDB204F10F010A549DF897
:100AD00004202846691CCDB204F10F010A54BC4918
:100AE0000E9806F0C7FF009006F0FEFE00B20190DF
:100AF0009DF805202846691CCDB204F10F010A5467
:100B00009DF804202846691CCDB204F10F010A5457
:100B1000AF490F9806F0AEFF009006F0E5FE00B278
:100B200001909DF805202846691CCDB204F10F0103
:100B30000A549DF804202846691CCDB204F10F0127
:100B40000A54A349109806F095FF009006F0CCFED9
:100B500000B201909DF805202846691CCDB204F131
:100B60000F010A549DF804202846691CCDB204F1F7
:100B70000F010A549649119806F07CFF009006F088
:100B8000B3FE00B201909DF805202846691CCDB245
:100B900004F10F010A549DF804202846691CCDB2C7
:100BA00004F10F010A548A49129806F063FF00907D
:100BB00006F09AFE00B201909DF805202846691CB7
:100BC000CDB204F10F010A549DF804202846691C97
:100BD000CDB204F10F010A54281FA0744FF0000990
:100BE000002007E004F10F01095C494401F0FF090E
:100BF000411CC8B2A842F5DB2846691CCDB204F1FD
:100C00000F0101F800902A462046FFF7BFFCBDE81F
:100C1000FC9F2DE9F84304460E4617460025AA22FC
:100C200029466D1C04F10F00425429466D1C4254A4
:100C3000052229466D1C4254002229466D1C42544F
:100C400000969DF8012029466D1C42549DF8002015
:100C500029466D1C425400979DF8012029466D1CC1
:100C600042549DF800202846691CCDB204F10F01C2
:100C70000A54281FA0744FF00008002007E004F178
:100C80000F01095C414401F0FF08411CC8B2A842B1
:100C9000F5DB2846691CCDB204F10F0101F8008094
:100CA0002A462046FFF772FCBDE8F8837FB504466C
:100CB0000025AA2229466D1C04F10F004254294642
:100CC0006D1C4254062229466D1C425400222946BE
:100CD0006D1C42549DF8052029466D1C42549DF818
:100CE000042029466D1C42549DF8092029466D1C9C
:100CF00042549DF808202846691CCDB204F10F012A
:100D00000A549DF80D202846691CCDB204F10F014C
:100D10000A549DF80C202846691CCDB204F10F013D
:100D20000A549DF821202846691CCDB204F10F0118
:100D30000A549DF820202846691CCDB204F10F0109
:100D40000A549DF825202846691CCDB204F10F01F4
:100D50000A549DF824202846691CCDB204F10F01E5
:100D60000A549DF829202846691CCDB204F10F01D0
:100D70000A549DF828202846691CCDB204F10F01C1
:100D80000A549DF82D202846691CCDB204F10F01AC
:100D90000A549DF82C202846691CCDB204F10F019D
:100DA0000A549DF831202846691CCDB204F10F0188
:100DB0000A549DF830202846691CCDB204F10F0179
:100DC0000A54281FA074002600200AE0F002002028
:100DD00000007A4404F10F01095C3144CEB2411C99
:100DE000C8B2A842F6DB2846691CCDB204F10F0157
:100DF0000E542A462046FFF7C9FB7FBD7FB5044647
:100E00000025AA2229466D1C04F10F0042542946F0
:100E10006D1C4254032229466D1C4254002229466F
:100E20006D1C42549DF8052029466D1C42549DF8C6
:100E3000042029466D1C42549DF8092029466D1C4A
:100E400042549DF808202846691CCDB204F10F01D8
:100E50000A549DF80D202846691CCDB204F10F01FB
:100E60000A549DF80C202846691CCDB204F10F01EC
:100E70000A549DF821202846691CCDB204F10F01C7
:100E80000A549DF820202846691CCDB204F10F01B8
:100E90000A549DF825202846691CCDB204F10F01A3
:100EA0000A549DF824202846691CCDB204F10F0194
:100EB0000A549DF829202846691CCDB204F10F017F
:100EC0000A549DF828202846691CCDB204F10F0170
:100ED0000A549DF82D202846691CCDB204F10F015B
:100EE0000A549DF82C202846691CCDB204F10F014C
:100EF0000A549DF831202846691CCDB204F10F0137
:100F00000A549DF830202846691CCDB204F10F0127
:100F10000A549DF835202846691CCDB204F10F0112
:100F20000A549DF834202846691CCDB204F10F0103
:100F30000A549DF839202846691CCDB204F10F01EE
:100F40000A549DF838202846691CCDB204F10F01DF
:100F50000A54281FA0740026002006E004F10F01A7
:100F6000095C3144CEB2411CC8B2A842F6DB284627
:100F7000691CCDB204F10F010E542A462046FFF73A
:100F800005FB7FBD2DE9F84304460E4617460025B4
:100F9000AA2229466D1C04F10F00425429466D1CFB
:100FA0004254072229466D1C4254002229466D1CDA
:100FB000425400969DF8032029466D1C42549DF82A
:100FC000022029466D1C42549DF8012029466D1CC3
:100FD00042549DF800202846691CCDB204F10F014F
:100FE0000A5400979DF801202846691CCDB204F1EF
:100FF0000F010A549DF800202846691CCDB204F167
:101000000F010A54281FA0744FF00008002007E0C9
:1010100004F10F01095C414401F0FF08411CC8B212
:10102000A842F5DB2846691CCDB204F10F0101F896
:1010300000802A462046FFF7A9FABDE8F8832DE98B
:10104000F84F04460E4617469846DDE90AAB0025E0
:10105000AA2229466D1C04F10F00425429466D1C3A
:101060004254022229466D1C4254002229466D1C1E
:10107000425400969DF8012029466D1C42549DF86B
:10108000002029466D1C425400979DF801202946F6
:101090006D1C42549DF800202846691CCDB204F115
:1010A0000F010A54CDF800809DF801202846691CE4
:1010B000CDB204F10F010A549DF800202846691CA6
:1010C000CDB204F10F010A54CDF800A09DF8012023
:1010D0002846691CCDB204F10F010A549DF8002086
:1010E0002846691CCDB204F10F010A54CDF800B0B6
:1010F0009DF801202846691CCDB204F10F010A5465
:101100009DF800202846691CCDB204F10F010A5455
:101110000C9800909DF801202846691CCDB204F17E
:101120000F010A549DF800202846691CCDB204F135
:101130000F010A540D9800909DF801202846691C63
:10114000CDB204F10F010A549DF800202846691C15
:10115000CDB204F10F010A540E9800909DF80120C1
:101160002846691CCDB204F10F010A549DF80020F5
:101170002846691CCDB204F10F010A540F98009063
:101180009DF801202846691CCDB204F10F010A54D4
:101190009DF800202846691CCDB204F10F010A54C5
:1011A000281FA0744FF00009002007E004F10F0190
:1011B000095C494401F0FF09411CC8B2A842F5DBB3
:1011C0002846691CCDB204F10F0101F800902A46AF
:1011D0002046FFF7DBF9BDE8F88F2DE9FE4F044606
:1011E0000E4617469846DDE90CAB0025CDF804A065
:1011F000AA2229466D1C04F10F00425429466D1C99
:101200004254012229466D1C4254002229466D1C7D
:101210004254FA49304606F02DFC009006F064FB7B
:1012200000B202909DF8092029466D1C04F10F00C0
:1012300042549DF8082029466D1C4254EF49384617
:1012400006F018FC009006F04FFB00B202909DF8EB
:10125000092029466D1C04F10F0042549DF8082016
:101260002846691CCDB204F10F010A54E3494046F7
:1012700006F000FC009006F037FB00B202909DF8EB
:1012800009202846691CCDB204F10F010A549DF8CB
:1012900008202846691CCDB204F10F010A549DF8BC
:1012A00007202846691CCDB204F10F010A549DF8AD
:1012B00006202846691CCDB204F10F010A549DF89E
:1012C00005202846691CCDB204F10F010A549DF88F
:1012D00004202846691CCDB204F10F010A542846A7
:1012E000691CCDB204F10F0101F800B029466A1C57
:1012F000D5B204F10F020E985054281FA0744FF07D
:101300000009002007E004F10F01095C494401F0E5
:10131000FF09411CC8B2A842F5DB2846691CCDB2C2
:1013200004F10F0101F800902A462046FFF72EF93C
:10133000BDE8FE8F2DE9FF4104460E460025AA2296
:1013400029466D1C04F10F00425429466D1C42547D
:10135000002229466D1C425429466D1C42542946E0
:101360006D1C46549DF8092029466D1C42549DF879
:10137000082029466D1C42549DF80D202846691C02
:10138000CDB204F10F010A549DF80C202846691CC7
:10139000CDB204F10F010A549DF829202846691C9A
:1013A000CDB204F10F010A549DF828202846691C8B
:1013B000CDB204F10F010A549DF82D202846691C76
:1013C000CDB204F10F010A549DF82C202846691C67
:1013D000CDB204F10F010A54281FA0740027002089
:1013E00006E004F10F01095C3944CFB2411CC8B2D8
:1013F000A842F6DB2846691CCDB204F10F010F5458
:101400002A462046FFF7C2F8BDE8FF812DE9F047E4
:1014100088B004467A4800787A49097890FBF1F25E
:1014200001FB120177480078401E814201D1012062
:10143000A070734800787449097890FBF1F201FBC1
:10144000120171480078401E814201D10120E070F4
:101450006B4800786D49097890FBF1F201FB1201AD
:101460006A480078401E814201D1012060736448BF
:1014700000786749097890FBF1F201FB120164489A
:101480000078401E814201D1012060705C480078E4
:101490006049097890FBF1F201FB12015D48007888
:1014A000401E814201D10120A072554800785A495E
:1014B000097890FBF1F201FB120157480078401EB9
:1014C000814201D1012020734D48007853490978A9
:1014D00090FBF1F201FB120150480078401E81425E
:1014E00001D10120A07346480078401C444908708F
:1014F000207868B1002020704FF4C8716E234FF43B
:101500009672CDE9001001212046FFF713FF20E17C
:10151000607878B1002060704148407A00210091E5
:10152000CDE901103F488368426801682046FFF713
:1015300054FE0EE1607B10B10020607309E1A078D9
:1015400080B30020A0703749486906F0CDF905B294
:101550003449086906F0C8F906B23249C86806F08D
:10156000C3F907B22F49C86A06F0BEF90FFA80F82E
:101570002C49886A06F0B8F90FFA80F92949486AB7
:1015800006F0B2F90FFA80FA0020CDE9025004907B
:1015900043464A465146CDE9007605902046FFF77E
:1015A0004EFDD6E0FFE7E07838B10020E070002281
:1015B00011462046FFF7E6FCCBE0A07AE8B1002018
:1015C000A0721948408A1849098A174AD289164BCD
:1015D0009B89CDE90332CDE9051013484189008983
:1015E000114A5288CDE9002002910F480388828871
:1015F000C1882046FFF702FCABE017E00000C842BC
:1016000008000020090000200F0000200A00002030
:101610000B0000200C0000200D0000200E00002018
:101620007C0000209800002082010020207B50B325
:101630000020207306A9544800F0DFF900200AE0DA
:1016400006A931F81010A1F57A7109B206AA22F89C
:101650001010411CC8B20428F2DB00200190029057
:1016600003900490BDF81E0080B20090BDF81C00ED
:1016700083B2BDF81A0082B2BDF8180081B22046CC
:10168000FFF714FB65E0A07B40B10020A0734FF48E
:10169000E4727B212046FFF7BCFA5AE02079E0B1E2
:1016A000002020713948016CC26B806B374B5B6A3C
:1016B000CDE90330CDE905213448006A3349C969D1
:1016C000324A9268CDE900210290304843680121F6
:1016D00002682046FFF786F93BE0607900B30020FE
:1016E00060712A48D0F894002849D1F89010274A10
:1016F000D2F88C20254B9B6FCDE90332CDE9051044
:101700002248416F006F214AD26DCDE9002002913D
:101710001E48836D0221426D2046FFF763F918E0F1
:10172000A079B0B10020A07103900490059001460B
:10173000024606901548D0F8B000CDE9012100908E
:101740001248D0F8AC300321D0F8A8202046FFF78B
:1017500049F908B0BDE8F0870D4909781E290CDD6C
:1017600000210B4A11700B49897A19B901220949E4
:101770008A7202E0002207494A7205490978491C29
:10178000034A11707047000076010020C401002058
:10179000100000207C0000200146002005E04FF4EE
:1017A0007A7221F81020421CD0B20628F7DB70476D
:1017B0002DE9F04F8FB004460D4616469B46DDF8E6
:1017C0006090484605F0E7FCCDE90A01584605F06F
:1017D000E2FC07468F4A904B05F008FDCDE9060173
:1017E000304605F0D8FC00228C4BCDE9000105F015
:1017F000FDFC07468846284605F0E4FC3A46434689
:10180000CDE9020105F0F0FDCDE90401DDE9062393
:1018100005F0EAFBCDE90801DDE90A2305F0E4FB68
:10182000CDE90C0105F088FC00B22080484605F0A7
:10183000B2FCCDE90A01584605F0ADFC0746754AF1
:10184000754B05F0D3FCCDE90601304605F0A3FC4D
:1018500007460022714B05F0C9FCCDE9020128467C
:1018600005F0B0FCCDE90001DDE9022305F0BCFD87
:10187000CDE90401DDE9062305F0B6FDCDE9080157
:10188000DDE90A2305F0B0FBCDE90C0105F054FCBD
:1018900000B26080484605F07EFCCDE90A0158465A
:1018A00005F079FC07465B4A5B4B05F09FFCCDE9F0
:1018B0000601304605F06FFC0022584BCDE90001CF
:1018C00005F094FC07468846284605F07BFC3A461E
:1018D0004346CDE9020105F087FBCDE90401DDE9CE
:1018E000062305F081FBCDE90801DDE90A2305F0B7
:1018F0007BFDCDE90C0105F01FFC00B2A08048463D
:1019000005F049FCCDE90A01584605F044FC0746BC
:10191000404A414B05F06AFCCDE90601304605F02E
:101920003AFC074600223D4B05F060FCCDE9020180
:10193000284605F047FCCDE90001DDE9022305F06A
:1019400053FBCDE90401DDE9062305F04DFDCDE9AA
:101950000801DDE90A2305F047FDCDE90C0105F09A
:10196000EBFB00B2E080A81BA0EB090000B22081D5
:10197000A819484400B26081B4F900A0012007E032
:1019800034F91010514501DD34F910A0411CC8B2E2
:101990000628F5DB002719E040F26C70824507DD70
:1019A00034F81710AAF26C70081A00B224F8170065
:1019B00034F8171088B240F26C7240F24C4100F0DB
:1019C0006DFD00B224F81700781CC7B2062FE3DBC8
:1019D0001348407A10B92046FFF7DEFE1148C08850
:1019E000B0F5966F02DA2046FFF7D6FE21460E4884
:1019F00001F0EFFD0FB0BDE8F08F02880A80428849
:101A00004A8082888A80C288CA8002890A81428983
:101A10004A81704783C0CAA145B6EB3F0000E03F52
:101A20007C000020820100203800002030B50146F3
:101A3000002013E000FB00F2193A32235A4302F669
:101A4000C41242435A4340F6C41392FBF3F213B25A
:101A500001F11C0222F81030421CD0B20728E9DB49
:101A600000202EE000EB80046400A4F13202012388
:101A7000002A00DD3223002A00DA3223002503FB8E
:101A800003F495FBF4F4643454430A2594FBF5F411
:101A900004F5FA7425B201F12A0424F8105034F93F
:101AA00010404FF448756C434FF47A7594FBF5F48D
:101AB00004F24C4425B201F12A0424F81050421CCF
:101AC000D0B20C28CEDB30BD10B504462046FFF75F
:101AD000ADFF204610BD2DE9F05F0446002060E018
:101AE00034F81010A1F2DC51002904DD34F8101094
:101AF000A1F2DC5104E034F8101040F2DC52511A2B
:101B0000B1F5FA7F10DA34F81010A1F2DC51002997
:101B100004DD34F81010A1F2DC5107E034F81010A5
:101B200040F2DC52511A01E04FF4FA710E460228DD
:101B30001FD0642196FBF1F504F11C016A1C31F9F8
:101B4000122031F91510511A05EBC50202EB0512EE
:101B5000A6EB82025143642291FBF2F204F11C01D4
:101B600031F8151011440AB204F1140121F81020C3
:101B700005E071420AB204F1140121F8102034F892
:101B8000101040F2DC52914209DA04F1140131F8EC
:101B9000101049420AB204F1140121F81020411C2E
:101BA000C8B203289CDBE0884FF4FA6240F27E4121
:101BB00000F074FC0646A6F27E404FF47A7148436A
:101BC00040F25231B0FBF1F6642096FBF0F504F1DF
:101BD0002A00691C30F9111030F91500081A05EBBC
:101BE000C50101EB0511A6EB81014843642190FB7F
:101BF000F1F104F12A0030F81500084401B26183C4
:101C0000E0884FF4FA6240F27E4100F047FC01B2F6
:101C10006183B4F91800002802DDB4F9180002E06D
:101C2000B4F918004042462833DAE08840F27E4199
:101C300088422EDD6B4AD2F88410906806F0AAF82C
:101C4000804605F051FE07B217F1B40F02DC07F52C
:101C5000B47007B2B42F02DBA7F5B47007B27842B4
:101C600007B2384605F0A6FE83465F48016F584626
:101C700005F000FF8146B4F9180005F09BFE82468E
:101C8000494606F087F8804605F02EFE01B2218312
:101C900004E0544880685349C1F88400BDE8F09FCF
:101CA0000146002035E031F81020B2F5617F04DBF9
:101CB00031F81020B2F5FA6F00DD2CE031F8102079
:101CC00040F27E439A4207DA484A125C484B1B783E
:101CD0001A43474B1A7006E0444A135C444A127890
:101CE0009A43434B1A7031F8102040F23A739A42EB
:101CF00007DD404A125C3E4B1B781A433C4B1A707E
:101D000006E03C4A135C3A4A12789A43384B1A7000
:101D1000401C0428C7DB00BF354A12784AB1364A56
:101D20001278FA2A0ADA344A1278521C324B1A70A4
:101D300004E00022304B1A702D4B1A702E4A127894
:101D4000642A29D12D4A527A6AB1294A127802F0BE
:101D50001002E2B1264A127802F04002BAB1002322
:101D6000264A537213E0224A127802F0200272B11E
:101D70001F4A127802F040024AB1204A127A1AB180
:101D800001231E4A537202E001221D4B5A700022A9
:101D9000174B1A70184B1A7070471A494989002955
:101DA0001ADD1849498940F63402914214DA15497E
:101DB0004989002905DD1349498940F214529142AD
:101DC0000ADB10494989B1F5AF6F04DD0D49498936
:101DD000B1F5C86F00DB00BF704700B50948FFF7D9
:101DE00073FE00BD98000020C40100205E7F000843
:101DF00012000020627F0008110000207C000020FB
:101E00009802002082010020704710B50446072385
:101E10001C220E49204604F057FC04462046FFF7DA
:101E2000F3FF204610BD704738B5044600200090EF
:101E30000748408B81B200231A460648FFF7B8FCDA
:101E400038BD10B50448FFF7E0FF10BD89660008F3
:101E50008201002076010020C401002010B5044654
:101E6000FE490888FE49098801F04EFE10BD1CB5E8
:101E70000446FA490889694601F0A1FCF7494889F6
:101E80000DF1020101F09BFCF449888901A901F0E0
:101E900096FCBDF8000000B2F2490881BDF80200CE
:101EA00001B2F0484181BDF8040001B2ED488181E2
:101EB0001CBD1CB50446E9494888694601F07FFC11
:101EC000E64988880DF1020101F079FCE349C888F0
:101ED00001A901F074FCBDF8000000B2E14948809E
:101EE000BDF8020001B2DF488180BDF8040001B2F4
:101EF000DC48C1801CBD38B50446D849C88969464C
:101F000001F05DFCBDF8000005F06CFD0546D6490A
:101F100005F0F4FBD5490860D049088A694601F00C
:101F20004EFCBDF8000005F05DFD0546CE4905F00C
:101F3000E5FBCE494860C949488A694601F03FFC43
:101F4000BDF8000005F04EFD0546C94905F0D6FB79
:101F5000C6498860C149888A694601F030FCBDF8ED
:101F6000000005F03FFD0546BF4905F0C7FBBF492E
:101F7000C861BA49C88A694601F021FCBDF8000071
:101F800005F030FD0546B84905F0B8FBB7490862D1
:101F9000B249088B694601F012FCBDF8000005F05B
:101FA00021FD0546B24905F0A9FBB0494862AB499D
:101FB000488B694601F003FCBDF8000005F012FDF6
:101FC0000546A94905F09AFBA8498863A349888B6F
:101FD000694601F0F4FBBDF8000005F003FD05467D
:101FE000A14905F08BFBA149C8639C49C88B694690
:101FF00001F0E5FBBDF8000005F0F4FC05469C4946
:1020000005F07CFB994908649449088C694601F005
:10201000D6FBBDF8000005F0E5FC0546924905F049
:102020006DFB9249C1F8A8008C49488C694601F0C3
:10203000C6FBBDF8000005F0D5FC05468A4905F051
:102040005DFB8A49C1F8AC008449888C694601F07F
:10205000B6FBBDF8000005F0C5FC0546844905F057
:102060004DFB8249C1F8B0007C49C88C694601F03B
:10207000A6FBBDF8000005F0B5FC05467A4905F061
:102080003DFB7A4948657549088D694601F097FB23
:10209000BDF8000005F0A6FC0546734905F02EFBCF
:1020A000724988656D49488D694601F088FBBDF825
:1020B000000005F097FC05466D4905F01FFB6B49D4
:1020C000C8656649888D694601F079FBBDF8000056
:1020D00005F088FC0546644905F010FB6349086774
:1020E0005E49C88D694601F06AFBBDF8000005F045
:1020F00079FC05465C4905F001FB5C494867574996
:10210000088E694601F05BFBBDF8000005F06AFC33
:102110000546574905F0F2FA5449886738BD10B5AD
:1021200004462046FFF7E7FE2046FFF7C2FE2046A2
:10213000FFF79DFE10BD70B505464C4908684A4939
:1021400005F098FC064605F015FC84B24349C889A1
:10215000214601F0D9FC45494868434905F08AFC0D
:10216000064605F007FC84B23C49088A214601F086
:10217000CBFC3E4988683E4905F07CFC064605F0EC
:10218000F9FB84B23549488A214601F0BDFC374944
:10219000C869354905F06EFC064605F0EBFB84B2D4
:1021A0002E49888A214601F0AFFC3049086A2E4941
:1021B00005F060FC064605F0DDFB84B22749C88ABD
:1021C000214601F0A1FC2949486A294905F052FC41
:1021D000064605F0CFFB84B22049088B214601F06A
:1021E00093FC2249886B204905F044FC064605F023
:1021F000C1FB84B21949488B214601F085FC1B497B
:10220000C86B194905F036FC064605F0B3FB84B2ED
:102210001249888B214601F077FC1449086C144957
:1022200005F028FC064605F0A5FB84B20B49C88BD7
:10223000214601F069FC0D49D1F8A8000A4905F0D2
:1022400019FC064605F096FB84B20449088C214629
:1022500001F05AFC0549D1F8AC000BE0667F00089C
:1022600016000020980200200000C842C40100208F
:1022700000007A445E4905F0FDFB064605F07AFB56
:1022800084B25C49488C214601F03EFC5A49D1F8A1
:10229000B0005A4905F0EEFB064605F06BFB84B230
:1022A0005449888C214601F02FFC5349486D504910
:1022B00005F0E0FB064605F05DFB84B24D49C88C95
:1022C000214601F021FC4C49886D494905F0D2FBBB
:1022D000064605F04FFB84B24649088D214601F0C1
:1022E00013FC4549C86D454905F0C4FB064605F099
:1022F00041FB84B23F49488D214601F005FC3E492F
:10230000086F3B4905F0B6FB064605F033FB84B287
:102310003849888D214601F0F7FB3749486F344929
:1023200005F0A8FB064605F025FB84B23149C88DAF
:10233000214601F0E9FB3049886F304905F09AFBEE
:10234000064605F017FB84B22A49088E214601F0A3
:10235000DBFB70BD38B5044626490888694601F0A4
:102360002EFABDF8000038BD10B504462046FFF730
:10237000F1FF23490988884202D02046FFF7DBFE9F
:102380002046FFF7CCFE2046FFF768FD10BD10B5D4
:1023900004461C4A528891B2164A508801F0B4FB98
:1023A000184A928891B2134A908801F0ADFB154A01
:1023B000D28891B20F4AD08801F0A6FB10BD10B5AB
:1023C0000446104A128991B20A4A108901F09CFB16
:1023D0000C4A528991B2074A508901F095FB094A8B
:1023E000928991B2034A908901F08EFB10BD0000E2
:1023F0000000C842667F0008C401002000007A4443
:10240000160000209802002010B50446204604F073
:1024100054F908B1002010BD4FF07E51204605F060
:10242000F5FB01D86748F6E76749204605F0EEFA64
:1024300001D86648EFE7204604F066F9EBE72DE99E
:10244000F04106460C461546304604F036F950B1C8
:102450002946204605F0DEF807464FF07C5105F08E
:1024600009FBBDE8F0812146304605F0CFFA01D2E4
:102470002046F6E72946304605F0C8FB01D228463B
:10248000EFE73046EDE703468B4201DA0846704736
:10249000934201DD1046FAE71846F8E703468B42FF
:1024A00001DA08467047934201DD1046FAE7184604
:1024B000F8E703468B4201DA08467047934201DD94
:1024C0001046FAE71846F8E7002801DD024600E06A
:1024D00042428A4201DA002006E0002801DD401A6B
:1024E00002E0002800DA0844704710B50446384975
:1024F000204605F0BFFA10BD10B504463549204608
:1025000005F0B8FA10BD10B504462146204605F086
:10251000B1FA10BD2DE9F04105460C462046FFF703
:10252000F2FF07462846FFF7EEFF8046394605F0E2
:1025300071F8064604F08AFCBDE8F0812DE9F05FF1
:1025400006460C4615462846FFF7DDFF8146204625
:10255000FFF7D9FF82463046FFF7D5FF8346514645
:1025600005F058F88046494605F054F8074604F04F
:102570006DFCBDE8F09F2DE9FE4F07460C46154661
:102580001E463046FFF7BFFF02902846FFF7BBFF0D
:1025900001902046FFF7B7FF00903846FFF7B3FFE2
:1025A0008346009905F036F88246019905F032F825
:1025B0008146029905F02EF8804604F047FCBDE8FC
:1025C000FE8F0000DB0FC93F000080BFDB0FC9BFDB
:1025D00034FA8E3CE12E654200B585B0684602F0C3
:1025E00090F84F490098B0FBF1F04E49086005B0F3
:1025F00000BD4D480068401C4B4908604B480088AE
:10260000401C4A49088008464088401C48800846CB
:102610008088401C88800846C088401CC8800846C6
:102620000089401C0881704700BF3F4801684FF097
:10263000E02082693C4800688142F6D13948006850
:1026400000EB4003C3EBC010C2EBC000354B1B686E
:10265000B0FBF3F001EB4103C3EBC11300EBC3008C
:10266000704730B50446FFF7DFFF054600BFFFF7B0
:10267000DBFF401BA042FAD330BD10B5044603E097
:102680004FF47A70FFF7EDFF2000A4F10104F7D1B9
:1026900010BD70B54FF4407001F016FDFFF79CFFC0
:1026A000234800684FF47A72B0FBF2F1481EB0F193
:1026B000807F00D31BE0481E4FF0E022506150178E
:1026C0000F22002807DA13071D0E1A4B00F00F0423
:1026D000241F1D5503E013071C0E174B1C5400BF8D
:1026E00000204FF0E02290610720106100BF00F051
:1026F0003EF800F0A1FC17220421104800F073FD01
:1027000045F6C05000F0B6FE4FF4165001F0DEFB67
:1027100001F014FA03F0F7F901F071F970BD00004F
:1027200040420F00180000201C0000208C000020F8
:102730006800002018ED00E000E400E0F002002056
:10274000704700BFFEE700BFFEE700BFFEE770472F
:10275000704710B5FFF74DFF10BD704710B5024828
:1027600001F017FC10BD000051000020704708B5B3
:102770000121082002F032F84020ADF800000320CB
:102780008DF8020014208DF803006946E84801F036
:1027900069FD8020ADF8000003208DF802001420B0
:1027A0008DF803006946E24801F05CFD08BD704702
:1027B00000B501464020DE4A143210600846FFF79B
:1027C000F6FF8020DA4A143210600846FFF7EFFF68
:1027D0004020D74A103210600846FFF7E8FF8020FB
:1027E000D34A103210600846FFF7E1FF00BD00B584
:1027F00001464020CE4A143210600846FFF7D7FF4A
:102800008020CB4A103210600846FFF7D0FF4020EE
:10281000C74A103210600846FFF7C9FFC4480830A5
:10282000006800F0800040B14020C14A14321060BE
:102830000846FFF7BCFF002000BD4020BC4A143210
:1028400010600846FFF7B3FF0120F5E710B5024618
:1028500008231DE04020B64C143420601046FFF7DA
:10286000A6FF01F0800018B18020241F206003E043
:102870008020AF4C143420604806010E1046FFF74C
:1028800096FF4020AA4C103420601046FFF78FFFBF
:102890001800A3F10104E3B2DCD14020A44C1434AD
:1028A000206010BD00B501468020A14A10321060A2
:1028B000402010600846FFF77AFF9D480830006806
:1028C00008B9012000E0002000F0800008B10020DD
:1028D00000BD8020964A143210600846FFF767FF5B
:1028E00093480830006800F0800008B10020EFE74E
:1028F00080208F4A143210600846FFF758FF0120ED
:10290000E6E7F0B506460F4614461D463046FFF78B
:10291000C9FF08B90020F0BD39463046FFF796FFE1
:102920003046FFF764FF20B93046FFF741FF002033
:10293000F1E721463046FFF789FF3046FFF757FFA2
:1029400029463046FFF782FF3046FFF750FF3046FA
:10295000FFF72EFF0120DEE700B501464020744A54
:10296000143210600846FFF722FF8020704A1032B0
:1029700010600846FFF71BFF40206D4A10321060C0
:102980000846FFF714FF4020694A143210600846D9
:10299000FFF70DFF00BD10B502460823002180207F
:1029A000634C1034206016E04806010E4020604C55
:1029B000143420601046FFF7FAFE4020241F2060E8
:1029C0001046FFF7F4FE5A480830006800F0800017
:1029D00008B141F001011800A3F10104E3B2E3D111
:1029E0004020534C14342060084610BDF0B5064614
:1029F0000C4615463046FFF755FF08B90020F0BDDC
:102A000021463046FFF722FF3046FFF7F0FE20B99F
:102A10003046FFF7CDFE0020F1E729463046FFF7AC
:102A200015FF3046FFF7E3FE3046FFF73BFF601C23
:102A3000C1B23046FFF70AFF3046FFF7D8FE3046F6
:102A4000FFF7A9FF07463046FFF786FF3046FFF73E
:102A5000AFFE3846D3E700B501464020344A143271
:102A600010600846FFF7A3FE8020314A1432106040
:102A70000846FFF79CFE40202D4A103210600846A1
:102A8000FFF795FE40202A4A143210600846FFF7EF
:102A90008EFE00BD2DE9F04381460E4617461C46CA
:102AA000DDF81C80B8F1010F02DA0020BDE8F083E8
:102AB0004846FFF7F7FE08B90020F7E731464846D9
:102AC000FFF7C4FE4846FFF792FE20B94846FFF7DD
:102AD0006FFE0020EAE739464846FFF7B7FE484652
:102AE000FFF785FE4846FFF7DDFE701CC1B2484681
:102AF000FFF7ACFE4846FFF77AFE012509E048469D
:102B0000FFF749FF04F8010B4846FFF7A4FF681CD4
:102B1000C5B24545F3DB4846FFF73DFF04F8010B1E
:102B20004846FFF719FF4846FFF742FE0120BDE780
:102B3000000C014010B504462046FFF717FE04467E
:102B4000A01C04F0C2F9841E04F1080004F0BDF9D1
:102B5000A0F1080404F11C0004F09AF9A0F11C048F
:102B600004F1280004F094F9A0F1280404F13400E1
:102B700004F08EF9A0F13404204610BD30B50346B0
:102B8000C822002007E000BF1400A2F10105AAB28C
:102B9000FAD1441CE0B28842F5DB30BD2DE9F041AA
:102BA00007460D4616462A2E15D006DC052E0CD0FB
:102BB0000A2E0CD0142E16D10BE0622E0DD0BC2E96
:102BC0000DD0B6F5807F0ED10BE006240DE0052474
:102BD0000BE0042409E0032407E0022405E00124BB
:102BE00003E0002401E0022400BF00BF80236B2229
:102BF000D0213846FFF785FE05213846FFF7BEFF96
:102C00004FF47A7090FBF5F0401E00F0FF08434649
:102C10001922D0213846FFF774FE03236B22D021FE
:102C20003846FFF76EFE02233722D0213846FFF7E1
:102C300068FE23461A22D0213846FFF762FE182389
:102C40001B22D0213846FFF75CFE10231C22D02126
:102C50003846FFF756FEBDE8F0812DE9F041044605
:102C6000207800286AD0EA48007800F0010048B9CE
:102C7000E74803F03BFD28B1E64804F009F9E448D1
:102C8000AFF30080E448008880B900231A46194653
:102C9000A01C04F01FF900231A461946DD4804F071
:102CA000FCF80120DC490880BDE8F08104F11C013A
:102CB000D84804F0F6F8D8480088C82839D1D64852
:102CC000008804F08FFE0646D2490868314604F0B9
:102CD00015FD054604F008FE00B26080CE4800886D
:102CE00004F080FE0646CB494868314604F006FDF4
:102CF000054604F0F9FD01B2A180C748008804F040
:102D000071FE0746C3498868394604F0F7FC064659
:102D10004FF08B4105F03EF8054604F0E5FD01B2A9
:102D2000E1800020BC4908802070BC48FFF72FFBE1
:102D3000BAE7B9480088401CB749088000BFB3E72C
:102D40002DE9FC4104463C22D0212046FFF74EFEEF
:102D5000A0733B22D0212046FFF748FEE073A17B01
:102D6000E07B41EA00206188401A00B2ADF8000023
:102D70003E22D0212046FFF739FE20743D22D0218B
:102D80002046FFF733FE6074217C607C41EA00211D
:102D9000A088081A00B2ADF802004022D0212046D7
:102DA000FFF724FEA0743F22D0212046FFF71EFE2D
:102DB000E074A17CE07C41EA0021E088081A00B2BE
:102DC000ADF80400BDF9040004F0F4FD0546BDF9BA
:102DD000020004F0EFFD0646BDF9000004F0EAFD34
:102DE00007462B463246394604F11C0004F055F8DC
:102DF0002046FFF732FFBDE8FC8170B504466078DD
:102E000000286ED08648007800F0010048B9844858
:102E100003F06CFC28B1834804F03AF88048AFF323
:102E200000808148008880B900231A46194604F1C1
:102E3000080004F04FF800231A461946794804F0B8
:102E40002CF801207849088070BD04F128017548EC
:102E500004F027F874480088C8283DD172480088DB
:102E600004F0C0FD06466F490868314604F046FC90
:102E7000054604F039FD00B220816B48008804F05B
:102E8000B1FD064667494868314604F037FC0546FF
:102E900004F02AFD01B261816348008804F0A2FDBC
:102EA000064660498868314604F028FC054604F06F
:102EB0001BFD01B2A18100205B49088060705B4866
:102EC000007A28B9012159484172012057490872F6
:102ED0005248FFF774FAB7E753480088401C52493C
:102EE000088000BFB0E72DE9FC4104464422D02110
:102EF0002046FFF77BFD20754322D0212046FFF7B7
:102F000075FD6075217D607D41EA00202189401AB0
:102F100000B2ADF800004622D0212046FFF766FD42
:102F2000A0754522D0212046FFF760FDE075A17D08
:102F3000E07D41EA00216089081A00B2ADF8020084
:102F40004822D0212046FFF751FD20764722D0218C
:102F50002046FFF74BFD6076217E607E41EA00212E
:102F6000A089081A00B2ADF80400BDF9040004F00D
:102F700021FD0546BDF9020004F01CFD0646BDF921
:102F8000000004F017FD07462B463246394604F18F
:102F9000280003F082FF2046FFF72FFFBDE8FC81E9
:102FA00010B5D1E90834CA6980E81C0010BD10B51D
:102FB000D1E90B348A6A80E81C0010BD0FB470B5EB
:102FC00005460C461A49069804F054FD0646FFF7DC
:102FD0008CFA60631649079804F04CFD0646FFF72B
:102FE00084FAA0631249089804F044FD0646FFF7EE
:102FF0007CFAE063D4E90E12606B85E8070070BCD0
:103000005DF814FB10B50B48FFF794FD10BD0000F0
:1030100020000020D80200202400002014000020FE
:1030200028000020E40200202C0000207C0000206A
:103030008DC1793D9802002000B587B0012108209C
:1030400001F0CCFB0121042001F0C8FB0121880321
:1030500001F0D1FB4FF46040ADF8040001208DF881
:10306000060018208DF8070001A9414801F0FAF880
:103070004FF48070ADF8040001208DF80600102098
:103080008DF8070001A93B4801F0ECF84FF480509F
:10309000ADF8040001208DF8060010208DF807001F
:1030A00001A9334801F0DEF84FF48051304801F0B7
:1030B00086F90020ADF808004FF48270ADF80A00E0
:1030C0000020ADF80C00ADF80E00ADF810004FF484
:1030D0000070ADF812000820ADF814000020ADF823
:1030E00016000720ADF8180002A9234803F000F9E4
:1030F0000121214803F0A1F907B000BD70B50546D4
:103100000C4600BF02211C4803F01BFA0028F9D02E
:103110002146194803F0C2F900BF0121164803F007
:1031200010FA0028F9D0144803F0BAF9C0B270BD03
:1031300010B504464FF480710E4801F040F910BDFF
:1031400010B504464FF480710A4801F03AF910BDF9
:1031500010B504464FF48051054801F030F910BD18
:1031600010B504464FF48051014801F02AF910BD12
:10317000000C014000080140003800402DE9F041FA
:1031800005460E4614462846FFF7EAFF3146284614
:10319000FFF7B4FF074621462846FFF7AFFF284652
:1031A000FFF7D6FF3846BDE8F0812DE9F047074626
:1031B000884615461E463846FFF7D2FF4146384638
:1031C000FFF79CFF8146002405E0295D3846FFF7A4
:1031D00095FF601CC4B2B442F7DB3846FFF7B8FF76
:1031E0004846BDE8F08770B505460C4616462846A9
:1031F000FFF7A6FF05239C4A2A212846FFF7D5FFA3
:1032000005239A4A30212846FFF7CFFF01222121CA
:103210002846FFF7B3FF012222212846FFF7AEFF21
:103220001A2224212846FFF7A9FF324625212846E5
:10323000FFF7A4FF0F2226212846FFF79FFF012C4E
:103240000AD1FF2231212846FFF798FF0F222021C3
:103250002846FFF793FF51E0022C0AD1FF223121CB
:103260002846FFF78BFF0E2220212846FFF786FF16
:1032700044E0032C21D1FF22E1212846FFF77EFF05
:10328000FF22E2212846FFF779FF0F22202128465E
:10329000FFF774FF50212846FFF730FF73212846BF
:1032A000FFF72CFF01223C212846FFF767FF06228B
:1032B0003D212846FFF762FF20E00E22202128460C
:1032C000FFF75CFFFF22E1212846FFF757FFFF22AF
:1032D000E2212846FFF752FF50212846FFF70EFF54
:1032E00073212846FFF70AFF01223C212846FFF7F9
:1032F00045FF06223D212846FFF740FF2846FFF7FD
:1033000017FF70BD70B506460C4615463046FFF7F0
:1033100017FF0523554A2A213046FFF746FF2B4663
:103320002246A0213046FFF740FF3046FFF700FF5E
:1033300070BD70B506460C4615463046FFF700FFD7
:103340002B462246A8213046FFF72FFF3046FFF7D5
:10335000EFFE70BD2DE9F0470746884615461E462C
:103360003846FFF7FDFE41463846FFF7C7FE814667
:10337000002406E000213846FFF7C0FE2855601CF7
:10338000C4B2B442F6DB3846FFF7E2FE4846BDE879
:10339000F0877CB505460523344A30212846FFF7DF
:1033A00004FF05236A4610212846FFF7D3FF0024B7
:1033B00008E01DF804002D49095D884200D003E0B3
:1033C000601CC4B2052CF4DB00BF052C01D1012028
:1033D0007CBD0020FCE770B504460D462046FFF793
:1033E000BFFE29462046FFF789FE00212046FFF751
:1033F00085FE06462046FFF7ABFE304670BD70B531
:10340000054607212846FFF7E6FF044604F0400082
:10341000C0B160212846FFF7DEFF0646212E0BDAF9
:1034200033462A4661212846FFF794FF3246294653
:103430000F48FDF7DAF804E0FF22E2212846FFF703
:103440009DFE00BF04F0100038B104F0010020B16F
:10345000FF22E1212846FFF791FE22462721284638
:10346000FFF78CFE70BD0000330000202E0000200E
:103470003401002030B589B0054601210C2001F04F
:10348000ADF90F20ADF8040003208DF806001820D8
:103490008DF8070001A96D4800F0E4FE0320ADF8A7
:1034A000040001A96A4800F0DDFE00BF01210846C2
:1034B00001F0A1F94FF47A70684366490968B1FBDD
:1034C000F0F0401E84B240F2E730ADF81C00ADF8D9
:1034D00018400020ADF81E00ADF81A0006A94FF004
:1034E000804001F0B3FA6020ADF808000120ADF88B
:1034F0000A000020ADF80E00ADF8100002A94FF050
:10350000804001F0E0FA0821C80601F02BFF02A973
:103510004FF0804001F019FB0821C80601F02BFF95
:1035200002A94FF0804001F05DFB0821C80601F0C0
:103530002FFF02A94FF0804001F09FFB0821C80631
:1035400001F02FFF0121880701F0DCFE012188072F
:1035500001F0D8FD0121022001F04DF93D4800683D
:103560003D49B0FBF1F0401E84B240F2E730ADF8C7
:103570001C00ADF818400020ADF81E00ADF81A0090
:1035800006A9364801F062FA6020ADF80800012073
:10359000ADF80A000020ADF80E00ADF8100002A949
:1035A0002E4801F01FFB08212C4801F0F1FE02A972
:1035B0002A4801F062FB0821284801F0F2FE0121AF
:1035C000264801F09FFE0121244801F09BFD09B02F
:1035D00030BD0246002014E031F91030B3F57A7F97
:1035E00004DA4FF47A7321F8103008E031F9103022
:1035F000B3F5FA6F03DD4FF4FA6321F81030431C82
:10360000D8B20628E8DB0888A0F57A704FF080432E
:1036100098864888A0F57A70104B3C3318808888CB
:10362000A0F57A704FF080439887C888A0F57A702B
:103630000A4B403318800889A0F57A701B0618875A
:103640004889A0F57A70064B188070470008014041
:10365000000C01406800002000366E0100040040AC
:1036600040000040034606210622F7480188F7483B
:103670000288ABB1012B1BD13AB94EF6EE60814204
:1036800001D1002070470120FCE739B94EF6EE6009
:10369000824201D10120F5E70020F3E7AB20F1E7FA
:1036A00009B90020EEE70AB90120EBE7AB20E9E712
:1036B0000020E7E770B5042600240120FFF7D2FFC1
:1036C0000446AB2C06D1E04800EB8420E0490860BA
:1036D000AB2070BDDC4800EB8420DD490860601C35
:1036E000D949891E01EB80250CE0D94800680068A3
:1036F000401C10B904263046EBE7D5480068001D91
:10370000D3490860D2480068A842EED38020E0E7A1
:1037100010B50424CC4802F03BFA0446042C01D036
:10372000204610BD0021C84802F035FB0446042C99
:1037300001D02046F5E7C54802F02AFA04462046A3
:10374000EFE72DE9F04104460F4604250026DFF897
:1037500004830120FFF786FF0646AB2E01D1BDE8AA
:10376000F081701CB849891E01EB802821E0B8481F
:1037700000680068401CB8B93946B548006802F0D6
:103780000AFB0546042D01D02846E8E72146B0484B
:103790000068801C02F0FFFA0546AD480068001D75
:1037A000AB4908602846DAE7A9480068001DA84927
:1037B0000860A74800684045D9D38020CFE72DE9AD
:1037C000F04706460F46002545F255584FF00109CF
:1037D0009D4CA2460020FFF745FF0546AB2D01D1C9
:1037E000BDE8F087984800EB852A99480068841E58
:1037F0000AE0B4F80080B04505D134F8020C3880F6
:103800004FF0000904E0241F0AF102008442F0D8BE
:1038100000BF4846E4E72DE9F0474FF0060A0626C8
:1038200000250027A8464FF0FF398748B0F800A0D0
:10383000864806885FEA0A0075D0A0F56E40EE382B
:1038400058B3A0F58850113800286DD146B97E488C
:1038500002F09EF90446042C1ED02046BDE8F087F5
:103860004EF6EE60864210D1774802F091F9044698
:10387000042C01D02046F1E70021744802F08BFAB5
:103880000446042C08D02046E8E7FFF741FF044631
:10389000042C01D02046E1E7AEE07EBB002522E00B
:1038A0006948C0886C4931F81510884201D10FFA77
:1038B00085F94D4515D0684931F815006749FFF77E
:1038C0007EFF8046B8F1010F0BD0634931F8150037
:1038D00062490988FFF735FF0746042F01D03846B3
:1038E000BCE7681C85B2192DDADB0021564802F0CE
:1038F00052FA0446042C02D02046AFE707E05348B2
:1039000002F046F90446042C1FD02046A6E74FF6E5
:10391000FF70864212D14D4802F03AF90446042C59
:1039200003D020469AE711E05EE00021464802F00D
:1039300032FA0446042C08D020468FE7FFF7E8FE51
:103940000446042C01D0204688E755E036B9FFF73D
:10395000DFFE0446042C46D020467FE74FF6FF707A
:10396000864207D1394802F013F90446042C3AD0B4
:10397000204673E7002523E03448801D008836493F
:1039800031F81510884201D10FFA85F94D4515D04F
:10399000314931F815003149FFF711FF8046B8F180
:1039A000010F0BD02C4931F815002C490988FFF77D
:1039B000C8FE0746042F01D038464FE7681C85B281
:1039C000192DD9DB0021214802F0E5F90446042C29
:1039D00001D0204642E71C4802F0DAF80446042CE5
:1039E00001D020463AE707E0FFF792FE0446042C98
:1039F00001D0204632E700BF00BF04202EE710B5FB
:103A0000FFF709FF0446FFF755FE204610BD2DE9DC
:103A1000F84F074689460425DFF830A0AAF1010ACD
:103A2000094800904FF00008002400264FF0000BDA
:103A30000020FFF717FE8046B8F1010F10D1DFF824
:103A400008A00248009016E00000010800040108E8
:103A500040000020FF070108667F00083C000020AE
:103A6000B8F1000F04D1DFF8C4A03148009002E0A3
:103A7000AB20BDE8F88F4EF6EE61504602F08BF9B0
:103A80000546042D01D02846F3E7FFF713FE49460B
:103A90003846FFF756FE0646042E01D03046E8E7CA
:103AA00000241CE0234830F81400B84215D0214906
:103AB00031F814002049FFF782FE8346BBF1010F65
:103AC0000BD01C4931F814001B490988FFF739FE57
:103AD0000646042E01D03046CBE7601C84B2192C78
:103AE000E0DB009802F054F80546042D01D028468A
:103AF000BFE70021504602F04EF90546042D01D0E3
:103B00002846B6E72846B4E770B505460E460024B9
:103B100031462846FFF715FE0446802C04D1314675
:103B20002846FFF774FF0446204670BD00040108D4
:103B300000000108667F00083C00002008B5012154
:103B4000102000F04BFE0121102000F047FE102055
:103B50008DF8030003208DF802004FF48040ADF88B
:103B600000006946154800F07DFB4FF40050ADF8A9
:103B700000006946114800F075FB08BD10B5044609
:103B80004FF480410D4800F01AFC10BD10B50446FA
:103B90004FF40051094800F012FC10BD10B5044666
:103BA0004FF48041054800F00CFC10BD10B50446F0
:103BB0004FF40051014800F004FC10BD001001401A
:103BC00010B5044601235822EE212046FEF799FE47
:103BD00010BD7CB50546002001900026002418E0A9
:103BE00002200090A02000EB4400C2B201ABEE2105
:103BF0002846FEF74FFF3044C6B29DF805009DF8F9
:103C0000041040EA012105F1100020F81410601C96
:103C1000C4B2082CE4DB082E01D101207CBD0020B9
:103C2000FCE710B5044601231E22EE212046FEF7D4
:103C300068FE10BD10B504460A20FEF71EFD2046A2
:103C4000FFF7EFFF0320FEF718FD2046FFF7C1FF47
:103C50002046FFF7B5FF10BD10B5044601234822EA
:103C6000EE212046FEF74DFE10BD38B50446032078
:103C700004F120030022EE2100902046FEF70AFF07
:103C800038BD2DE9F04F8BB004464FF00008C14617
:103C900094F8200001042120005D41EA0020222147
:103CA000095D0843A06094F8230001042420005D0E
:103CB00041EA00202521095D0843E060608BA1688E
:103CC000A1EB0025A08A00040022218B4FEAE57CAD
:103CD000A1FB05BE02FB05E301FB0C334FEADB1140
:103CE00041EA4361401842EBE312CDE90802608AE1
:103CF0004FEAC0304246E18A4FEAE57CA1FB05BEAF
:103D000002FB05E301FB0C334FEA1B2141EA03618F
:103D1000401842EB2322CDE90602A08B42464FEA2F
:103D2000E573A0FB051C02FB05C200FB03204FEA64
:103D3000402242EAD1504FF4FA614718B7F5FA6FC2
:103D400019DAA7F5FA66764306EB86004FEA6008B3
:103D500006EB86004FEAA009544887420BDA07F2C7
:103D6000DC567643072000FB068806EB460000EB96
:103D7000C60009EB6009DDE90801B0EB080061EB62
:103D8000E871CDE90801DDE90601B0EB090061EB5E
:103D9000E971CDE906014FF00003E168DDE9062C89
:103DA000A1FB020B03FB02B201FB0C224FEA5051B4
:103DB00041EAC22C4FEA6251DDE90802BCEB000087
:103DC00061EB0201C00B40EA414A504603F0F2FDAC
:103DD0003749019003F092FC8346364802905846DA
:103DE000029902F025FD4FF07E51039003F03FFF52
:103DF0003149049003F03EFE059003F075FD8246C4
:103E0000606818B16068AAEB000020602B48007859
:103E1000B0B12A480078401E28490870084600784A
:103E2000C82804DA26480068504425490860234819
:103E3000007828B922480068C72190FBF1F0606043
:103E40000BB0BDE8F08F38B50446032004F123031E
:103E50000022EE2100902046FEF71CFE38BD10B572
:103E600004461848006860B12046FFF7ECFF204682
:103E7000FFF7A6FE2046FFF704FF00201149086067
:103E800008E02046FFF7F1FE2046FFF7E5FE01209F
:103E90000C49086010BD01460868704710B50A4C0F
:103EA0002046FEF763FC044600BF10BD24FAFFFF66
:103EB00080E6C547B1DC423ED048874A500000202A
:103EC0004C00002048000020F004002010B588B00D
:103ED00004460121880400F08EFC0121082000F036
:103EE0007DFC4FF48060ADF8040003208DF80600DF
:103EF00018208DF8070001A96E4800F0B3F94FF4BF
:103F00000060ADF8040003208DF8060004208DF851
:103F1000070001A9674800F0A5F904940020ADF856
:103F20001400ADF81600ADF81800ADF81C000C2018
:103F3000ADF81A000020ADF80800ADF80A004FF403
:103F40000070ADF80C000020ADF80E0004A95A482E
:103F500001F0F9FB02A9584801F06AFC012240F285
:103F60002551554801F087FC0121534801F077FCA9
:103F700027208DF8000001208DF8010000208DF829
:103F8000020001208DF80300684600F0A2F808B096
:103F900010BD01464848008800F0080020B1464A9C
:103FA000121D1288D0B200BF4348008800F0800084
:103FB000F0B141480C30008800F08000C0B13F48AB
:103FC00002780078401C3D4B18703D48805C3A4AAE
:103FD000121D1080184600783A4A1278904207D194
:103FE00035480C30008820F08000334A0C321080B5
:103FF0003148008800F0200020B12F4A121D12889D
:10400000D0B200BF704770B505460C462D48017808
:104010000078401C2B4A10702948445426480C3024
:10402000008800F0800028B9012240F22771224860
:1040300001F021FC70BD70B505460C4614E02078F7
:104040000D2804D10D212846FFF7DDFF0BE0207875
:104050000A2804D10A212846FFF7D5FF03E021787A
:104060002846FFF7D0FF641C20780028E7D170BDF8
:104070002DE9F04106460C46154600200AE0225C78
:1040800010490B780978491C0E4F39700C49CA54F5
:10409000411CC8B2A842F2DB07480C30008800F08F
:1040A000800028B9012240F22771034801F0E3FBA8
:1040B000BDE8F081000C01400048004052000020A3
:1040C000180500205300002031490143314A116096
:1040D000704770B5002100230F22C47804B32D4C23
:1040E000246804F4E064C4F5E064210AC1F1040327
:1040F000CA40447804FA03F184781440214309014A
:10410000254C0678A155047804F01F050124AC4025
:1041100005786D11AD0005F1E025C5F8004109E015
:10412000047804F01F050124AC401C4D067876117C
:1041300045F8264070BD1A4A0A400243154B1B1F22
:104140001A60704739B1134A121D12680243114BAD
:104150001B1D1A6006E00F4A121D126882430D4BA8
:104160001B1D1A607047042808D14FF0E02109692F
:1041700041F004014FF0E022116107E04FF0E0212F
:10418000096921F004014FF0E0221161704700003D
:104190000000FA050CED00E000E400E080E100E042
:1041A00080FFFF1F10B50446CC48844208D101218E
:1041B000042000F02DFB0021042000F029FB46E044
:1041C000C748844208D10121082000F021FB0021CA
:1041D000082000F01DFB3AE0C248844208D10121CA
:1041E000102000F015FB0021102000F011FB2EE044
:1041F000BD48844208D10121202000F009FB0021A4
:10420000202000F005FB22E0B848844208D10121BB
:10421000402000F0FDFA0021402000F0F9FA16E0FD
:10422000B348844208D10121802000F0F1FA002136
:10423000802000F0EDFA0AE0AE48844207D1012167
:10424000801500F0E5FA0021A01500F0E1FA10BD9C
:1042500010B50121084600F0DBFA0021012000F032
:10426000D7FA10BD2DE9F0410246002500260020B6
:1042700000230024002791F803C00CF00F0591F8EB
:1042800003C00CF0100CBCF1000F03D091F802C079
:104290004CEA050591F800C0BCF1000F31D014685C
:1042A00000202BE04FF0010C0CFA00F3B1F800C035
:1042B0000CEA03069E4220D183004FF00F0C0CFA4B
:1042C00003F7BC4305FA03FC4CEA040491F803C06D
:1042D000BCF1280F06D14FF0010C0CFA00FCC2F81B
:1042E00014C00AE091F803C0BCF1480F05D14FF0AB
:1042F000010C0CFA00FCC2F810C0401C0828D1D3F5
:104300001460B1F800C0BCF1FF0F34DD5468002028
:104310002EE000F1080C4FF0010808FA0CF3B1F898
:1043200000C00CEA03069E4221D183004FF00F0C1F
:104330000CFA03F7BC4305FA03FC4CEA040491F8B9
:1043400003C0BCF1280F05D100F1080C08FA0CF8E5
:10435000C2F8148091F803C0BCF1480F07D100F1F6
:10436000080C4FF0010808FA0CF8C2F81080401C45
:104370000828CED35460BDE8F0814FF6FF7101806C
:10438000022181700421C1707047024600209368A9
:104390000B400BB1012000E0002070470146886807
:1043A00080B2704702460020D3680B400BB1012059
:1043B00000E0002070470146C86880B27047016184
:1043C0007047416170470AB1016100E04161704787
:1043D000C16070474FF480320A438261816182611B
:1043E00082698269704702460020434B18684FF685
:1043F0008073184040EA021008433F4B1860704732
:104400003E49C8617047F0B50A46002300240021E8
:10441000002500F00046B6F1004F02D1364EF1699A
:1044200001E0354E7168C0F3034583B200F44016D5
:10443000B6F5401F08D121F070612F4E766826F046
:1044400070662D4F7E6012E000F48016B6F5801F76
:1044500006D1032606FA05F4A14341F0706106E097
:10446000460D360103FA06F6B14341F0706122B100
:10447000460D360103FA06F6314300F00046B6F168
:10448000004F02D11C4EF16101E01B4E7160F0BD86
:1044900030B500228B071C0F0F2303FA04F2164BD2
:1044A00008338C1053F824309343134C08348D1088
:1044B00044F8253023468C1053F824308C07240F01
:1044C00000FA04F423430C4C08348D1044F82530D2
:1044D00030BD0A49DC310860704700000008014027
:1044E000000C014000100140001401400018014080
:1044F000001C01400020014000000140000020425B
:10450000DF48006840F00100DD4908600846406867
:10451000DC490840DA49486008460068DA49084042
:10452000D74908600846006820F4802008600846E3
:10453000406820F4FE0048604FF41F008860704718
:10454000CF49096821F48031CD4A116011460968CC
:1045500021F480211160B0F5803F03D0B0F5802FA9
:104560000ED106E0C649096841F48031C44A1160A1
:1045700007E0C349096841F4A021C14A116000E085
:1045800000BF00BF704710B5014600220023002085
:104590004A11012A02D1BA4C236806E0022A02D14C
:1045A000B74C236A01E0B64C636A01F01F02012494
:1045B00094401C400CB1012000E0002010BD38B533
:1045C000002000900024002500BF3120FFF7DBFF12
:1045D00005460098401C00900098B0F5A06F01D0EF
:1045E000002DF2D03120FFF7CEFF08B1012400E00A
:1045F0000024204638BD01460020A14A106820F062
:10460000F80040EAC10010607047A0490860704798
:10461000024600209A4B586820F47C1042EA0103BD
:104620001843974B58607047984908667047014691
:104630000020934A506820F0030008435060704700
:104640008F48406800F00C007047014600208C4AFB
:10465000506820F0F0000843506070470146002089
:10466000874A506820F4E060084350607047014674
:104670000020834A506820F4605040EAC100506036
:10468000704729B17E4A527A02437D4B5A7204E048
:104690007B4A527A82437A4B5A7270477B49D831AF
:1046A0000860704701460020754A506820F4404079
:1046B0000843506070470021714A20321170704ADF
:1046C00082F82010012802D004280AD104E0012138
:1046D0006B4A2032117005E00521694A20321170C1
:1046E00000E000BF00BF7047694908607047644937
:1046F000096A0143624A116270476549443908609A
:10470000704730B500210022002400235C4D6D6805
:1047100005F00C0121B1042905D0082923D105E0B9
:104720005C4D056022E05B4D05601FE0544D6D68F7
:1047300005F47012524D6D6805F48034022505EBC6
:1047400092421CB9544D554305600BE04C4D6D68C9
:1047500005F400351DB1504D5543056002E04D4D47
:104760005543056002E04B4D056000BF00BF444D5E
:104770006D6805F0F0010909484D6B5C0568DD4086
:1047800045603F4D6D6805F4E061090A434D6B5C7F
:104790004568DD4085603A4D6D6805F46051C90A91
:1047A0003E4D6B5C4568DD40C560354D6D6805F478
:1047B0004041890B3A4D6B5CC568B5FBF3F505616B
:1047C00030BD29B12E4A526902432D4B5A6104E093
:1047D0002B4A526982432A4B5A61704729B1284AB1
:1047E00092690243264B9A6104E0254A926982430A
:1047F000234B9A61704729B1214AD2690243204B69
:10480000DA6104E01E4AD26982431D4BDA617047C7
:1048100029B11B4AD2680243194BDA6004E0184AF6
:10482000D2688243164BDA60704729B1144A126984
:104830000243134B1A6104E0114A12698243104B80
:104840001A61704712494039086070470F49C864BF
:1048500070470B49C87170470948406A40F0807042
:1048600007494862704701460020054A92680A409D
:104870000AB1012000E000207047014988727047AA
:10488000001002400000FFF8FFFFF6FE0000424269
:104890008004424200127A0000093D0054000020CA
:1048A0006400002010B50446FE48844208D101216E
:1048B000C014FFF7ADFF0021E014FFF7A9FFC4E02B
:1048C000B4F1804F08D101210846FFF7AEFF002167
:1048D0000120FFF7AAFFB8E0F348844208D1012184
:1048E0000220FFF7A2FF00210220FFF79EFFACE0AD
:1048F000EE48844208D101210420FFF796FF0021F1
:104900000420FFF792FFA0E0E948844208D101218A
:104910000820FFF78AFF00210820FFF786FF94E0B8
:10492000E448844208D101211020FFF77EFF0021D6
:104930001020FFF77AFF88E0DF48844208D1012188
:104940002020FFF772FF00212020FFF76EFF7CE0A0
:10495000DA48844208D101214014FFF759FF0021B1
:104960006014FFF755FF70E0D548844209D101215A
:10497000C804FFF74DFF00214FF40020FFF748FF68
:1049800063E0D048844209D101210805FFF740FFC8
:1049900000214FF48010FFF73BFF56E0CA488442E5
:1049A00009D101214805FFF733FF00214FF4001022
:1049B000FFF72EFF49E0C548844208D1012140207D
:1049C000FFF733FF00214020FFF72FFF3DE0C048F5
:1049D000844208D101218020FFF727FF0021802099
:1049E000FFF723FF31E0BB48844208D10121801545
:1049F000FFF71BFF0021A015FFF717FF25E0B648C2
:104A0000844209D101210804FFF702FF00214FF47D
:104A10008030FFF7FDFE18E0B048844209D1012143
:104A20004804FFF7F5FE00214FF40030FFF7F0FED9
:104A30000BE0AB48844208D101218804FFF7E8FE6F
:104A400000214FF48020FFF7E3FE10BD0022028812
:104A5000944B98420ED0994B98420BD0B0F1804FB6
:104A600008D0914B984205D0904B984202D0904B81
:104A7000984204D14FF68F731A404B881A438D4BDE
:104A8000984207D08C4B984204D04FF6FF431A400F
:104A9000CB881A4302808B8883850B880385814BE2
:104AA00098420BD0854B984208D08B4B984205D04A
:104AB0008A4B984202D08A4B984201D10B7A0386E6
:104AC00001238382704770B5002400220023058CE7
:104AD0004FF6FE7635400584028C8388048B4FF6B2
:104AE0008F752C40B51E2C400D882C43751E2A4016
:104AF0000D892A434D882A436A4DA8420BD06F4D39
:104B0000A84208D0744DA84205D0744DA84202D0E6
:104B1000734DA84213D14FF6F7752A404D892A43A9
:104B20004FF6FB752A408D882A434FF6FF652B40D0
:104B30004FF6FF552B408D892B43CD892B43838026
:104B40000483CD888586028470BD70B50024002260
:104B50000023058C4FF6EF7635400584028C838860
:104B6000048B48F6FF752C404FF6FF452C400D880E
:104B70004FF6FF7606EA05252C434FF6DF752A40EF
:104B80000D8906EA05152A434D8806EA05152A43CC
:104B9000444DA84202D0494DA8421DD14FF67F7521
:104BA0002A404D894FF6FF7606EA05152A434FF64F
:104BB000BF752A408D8806EA05152A434FF6FF3552
:104BC0002B404FF2FF752B408D8906EA85052B435C
:104BD000CD8906EA85052B4383800483CD8805872C
:104BE000028470BD70B5002400220023058C4FF6AE
:104BF000FF6635400584028C8388848B4FF68F7561
:104C00002C404FF6FC752C400D882C434FF6FF5579
:104C10002A400D894FF6FF7606EA05252A434D887E
:104C200006EA05252A431F4DA84202D0234DA8427B
:104C30001DD14FF2FF752A404D894FF6FF7606EAE7
:104C400005252A434FF6FF352A408D8806EA0525BB
:104C50002A434EF6FF752B404DF6FF752B408D898C
:104C600006EA05152B43CD8906EA05152B438380FB
:104C70008483CD888587028470BD70B500220023AF
:104C80000024058C4EF6FF7635400584038C84881D
:104C9000828B48F6FF752A404FF6FF452A400D8863
:104CA00020E00000002C014000040040000800400B
:104CB000000C00400010004000140040003401408F
:104CC000004C0140005001400054014000180040D9
:104CD000001C004000200040004001400044014012
:104CE000004801404FF6FF7606EA05252A434DF6B7
:104CF000FF752B400D8906EA05352B434D8806EAE2
:104D000005352B43FA4DA84202D0FA4DA84208D1EE
:104D10004BF6FF752C408D894FF6FF7606EA851518
:104D20002C4384808283CD88A0F84050038470BDDA
:104D3000828B4FF2FF331A408283828B4FF6FF73D0
:104D400003EA01231A4382837047F0B50C461546E7
:104D5000002200210026078C4EF6FF7C07EA0C0794
:104D60000784828B018C4FF6FF7707EA043640F602
:104D7000FF473A404FF6FF7707EA05273A434FF6D9
:104D8000FF7707EA03373A43D94FB8420ED0D94FDD
:104D9000B8420BD0B0F1804F08D0D74FB84205D001
:104DA000D64FB84202D0D64FB84206D14DF6FF7763
:104DB000394046F48057394305E047F6FF573940FC
:104DC00044F48057394382830184F0BD828B4FF6CF
:104DD000F3731A408283828B0A4382837047F0B553
:104DE0000C461546002200210026078C4FF6FF6C6A
:104DF00007EA0C070784828B018C4FF6FF7707EADE
:104E000004264FF60C773A404FF6FF7707EA031770
:104E10002F433A43B64FB8420ED0B64FB8420BD0EC
:104E2000B0F1804F08D0B44FB84205D0B34FB8426C
:104E300002D0B34FB84206D14FF6FF57394046F47F
:104E40008077394305E04FF2FF57394044F48077CB
:104E5000394382830184F0BD028B4FF2FF331A4045
:104E60000283028B4FF6FF7303EA01231A43028386
:104E70007047F0B50C461546002200210026078C2D
:104E80004FF6EF7C07EA0C070784028B018C4FF684
:104E9000FF7707EA041640F6FF473A404FF6FF77E0
:104EA00007EA03373A434FF6FF7707EA05273A4305
:104EB0008F4FB8420ED08F4FB8420BD0B0F1804F19
:104EC00008D08D4FB84205D08C4FB84202D08C4FDD
:104ED000B84206D14FF6DF77394046F01007394324
:104EE00005E04FF65F77394044F0100739430283FD
:104EF0000184F0BD028B4FF6F3731A400283028BDC
:104F00000A4302837047F0B50C4615460022002183
:104F1000068C4FF6FE773E400684028B018C4FF6DE
:104F20000C7632407E1C06EA03162E433243704E46
:104F3000B0420ED06F4EB0420BD0B0F1804F08D0CF
:104F40006D4EB04205D06D4EB04202D06C4EB042B4
:104F500006D14FF6FD76314044F00106314305E0BD
:104F60004FF6F576314044F0010631430283018467
:104F7000F0BD70B505460C465D4885420ED05D48D3
:104F800085420BD0B5F1804F08D05B48854205D0F3
:104F90005A48854202D05A48854200D100E000BFFD
:104FA000208850B92389A28861882846FFF7ABFF83
:104FB000E1882846FFF79EFF25E0208804280AD1D3
:104FC0002389A28861882846FFF753FFE188284695
:104FD000FFF742FF17E0208808280AD12389A2881A
:104FE00061882846FFF7FBFEE1882846FFF7EEFEC2
:104FF00009E02389A28861882846FFF7A6FEE18898
:105000002846FFF795FE70BD2DE9F04105460C4698
:1050100000260127608808B9022600E00026A08843
:10502000012801D1022700E001272088A0B92389A7
:10503000A28861882846FFF766FFE1882846FFF7C7
:1050400059FF23893A4631462846FFF712FFE18887
:105050002846FFF701FF13E02389A28861882846CC
:10506000FFF707FFE1882846FFF7F6FE23893A4657
:1050700031462846FFF747FFE1882846FFF73AFF09
:10508000BDE8F0810A884B881A438B881A43CB8885
:105090001A430B891A434B891A438B891A43A0F888
:1050A000442070474FF6FF71818000210180C1804C
:1050B0004180017270470021018041808180C18060
:1050C000018141818181C18170470021018041803E
:1050D000012181800021C180018170470021018070
:1050E00041808180C18001814181818170470000C0
:1050F000002C014000340140000400400008004042
:10510000000C004021B1028842F00102028004E05C
:1051100002884FF6FE731A400280704731B1B0F832
:10512000442042F40042A0F8442005E0B0F84420B6
:10513000C2F30E02A0F8442070471AB183890B43D2
:10514000838102E083898B4383817047818270472A
:1051500041EA0203A0F8483070471AB183890B4333
:10516000838102E083898B438381704701894FF6F5
:10517000F8721140018170470A46002101894FF6FB
:105180008F73194011430181704730B504460D46B5
:1051900029462046FFF7F0FF208940F007002081D4
:1051A00030BD2DE9F04104460D4616461F46602DE0
:1051B00006D13B46012231462046FFF75AFE05E064
:1051C0003B46012231462046FFF79DFE29462046F8
:1051D000FFF7D2FF208940F007002081BDE8F08171
:1051E00030B50C4600210189C9B24FF6FF7505EABA
:1051F0000325154325432943018130BD2DE9F041A5
:1052000005460E4617469846002443463A46314620
:105210002846FFF7E5FF2C894FF6F870044044F06C
:1052200007044FF68F70044044F070042C81BDE8F1
:10523000F081F0B504460D4616461F463B46324601
:1052400029462046FFF7CCFF208940F4804020818A
:10525000F0BD0185828270470A46002101884FF621
:105260008F731940114301807047F0B50C46154605
:105270001E460021002200230189028B038C4FF679
:10528000F877394021434FF6FC473A4040F2011786
:105290003A434FF6DD773B404FF6FF7707EA0617B4
:1052A0002F433B43018102830384F0BD0A46002162
:1052B000018B4FF68F7319401143018370470A46E3
:1052C0000021018B48F6FF7319404FF6FF7303EA84
:1052D00002231943018370470A460021818B4FF650
:1052E0008F7319401143818370470A460021818BD7
:1052F00048F6FF7319404FF6FF7303EA0223194380
:105300008183704721B1028842F08002028004E06C
:1053100002884FF67F731A400280704721B182885D
:1053200042F00402828004E082884FF6FB731A4048
:105330008280704721B1828842F00802828004E0B6
:1053400082884FF6F7731A408280704721B18288B5
:1053500042F00102828004E082884FF6FE731A4018
:10536000828070470A460021018B4FF6F77319407F
:105370001143018370470A460021018B4FF2FF73EE
:1053800019404FF6FF7303EA022319430183704764
:105390000A460021818B4FF6F77319401143818330
:1053A00070470A460021818B4FF2FF7319404FF678
:1053B000FF7303EA02231943818370470A460021E1
:1053C000018B4FF6FB7319401143018370470A4666
:1053D0000021018B4FF6FF3319404FF6FF7303EAAC
:1053E00002231943018370470A460021818B4FF63F
:1053F000FB7319401143818370470A460021818B5A
:105400004FF6FF3319404FF6FF7303EA02231943A7
:10541000818370470A460021018B4FF67F73194044
:105420001143018370470A460021018BC1F30E012D
:105430004FF6FF7303EA02231943018370470A46BC
:105440000021818B4FF67F73194011438183704790
:105450000A460021818BC1F30E014FF6FF7303EA68
:1054600002231943818370470A460021018C4FF6BD
:10547000FD7319401143018470470A460021018CD5
:105480004FF6F77319401143018470470A46002113
:10549000018C4FF6DF7319404FF6FF7303EA0213D6
:1054A0001943018470470A460021018C4FF67F732F
:1054B00019404FF6FF7303EA021319430184704742
:1054C0000A460021018C4FF6FF5319404FF6FF7337
:1054D00003EA02231943018470470A460021018C24
:1054E0004FF2FF7319404FF6FF7303EA022319438B
:1054F000018470470A460021018C4DF6FF73194064
:105500004FF6FF7303EA023319430184704730B545
:10551000002301248C40A3B2048C9C430484048C9B
:1055200002FA01F5ADB22C43048430BD30B500233E
:1055300004248C40A3B2048C9C430484048C02FA9F
:1055400001F5ADB22C43048430BD70B50346002094
:1055500000241846183001258D40ACB21D8CA5439F
:105560001D8409B1082909D100EB6100056825F007
:10557000700505600568154305600EE00D1FC5F355
:105580004E052844056825F4E045056005684FF69A
:10559000FF7606EA02263543056070BD21B1028818
:1055A00042F00202028004E002884FF6FD731A40C6
:1055B0000280704721B1028842F00402028004E0B8
:1055C00002884FF6FB731A400280704721B182882F
:1055D00042F08002828004E082884FF67F731A4096
:1055E0008280704702884FF6F7731A400280028863
:1055F0000A430280704782884FF68F731A40828078
:1056000082880A438280704702894FF6F8731A40F5
:10561000028102890A430281704702894FF67F7333
:105620001A40028102890A430281704781847047CF
:1056300081857047818670470187704781877047F1
:10564000A0F84010704702884FF6FF431A400280CE
:1056500002880A43028070470146888E70470146DF
:10566000088F70470146888F70470146B1F84000A7
:1056700070470146888C70470146088D7047024686
:105680000020138A0B400BB1012000E0002070477E
:10569000CA430282704730B502460020002300242E
:1056A000158A05EA0103958905EA010413B10CB1D5
:1056B000012000E0002030BDCA4302827047000094
:1056C00010B50446FB48844209D101218803FFF745
:1056D0009FF800214FF48040FFF79AF832E0F64837
:1056E000844209D101214804FFF79FF800214FF4BB
:1056F0000030FFF79AF825E0F048844209D10121F3
:105700008804FFF792F800214FF48020FFF78DF80E
:1057100018E0EB48844209D10121C804FFF785F85D
:1057200000214FF40020FFF780F80BE0E5488442A9
:1057300008D101210805FFF778F800214FF4801007
:10574000FFF773F810BD2DE9F04786B005460E4609
:105750000024A24600BFA1460027B08900B100BFC7
:105760002F462C8A4CF6FF700440F08804432C82AC
:10577000AC894EF6F3100440B08831890843718932
:1057800008430443AC81AC8A4FF6FF400440B08923
:105790000443AC8201A8FEF7B4FFC648874202D199
:1057A000DDF810A001E0DDF80CA0A88900F40040AD
:1057B00040B10AEBCA0000EB0A1031684900B0FBA7
:1057C000F1F807E00AEBCA0000EB0A103168890023
:1057D000B0FBF1F86420B8FBF0F00401200964216B
:1057E00001FB1089A88900F4004040B1322000EB91
:1057F000C900B0FBF1F000F00700044308E03220DC
:1058000000EB09106421B0FBF1F000F00F0004433D
:105810002C8106B0BDE8F0874FF4165101600021DD
:105820008180C18001810C214181002181817047EB
:1058300010B502460020108A4FF2FF0318400B8873
:105840004C8823438C882343CC88234318431082FD
:1058500010BD0021018041808180C180704721B14D
:10586000828942F40052828104E082894DF6FF73FE
:105870001A4082817047F0B50346002400260025B7
:10588000002040F66A17B94200D100BF1846C1F3A4
:10589000421401F01F06012707FA06F5012C01D179
:1058A0000C3004E0022C01D1103000E014301AB1A9
:1058B00007682F43076002E00768AF430760F0BD49
:1058C0001AB1838A0B43838202E0838A8B438382EB
:1058D0007047028A4FF6F0731A400282028A0A4326
:1058E0000282704782894FF2FF731A408281828957
:1058F0000A438281704721B1828942F0020282818B
:1059000004E082894FF6FD731A4082817047028A53
:105910004FF6DF731A400282028A0A4302827047FE
:1059200021B1028A42F48042028204E0028A4BF6EC
:10593000FF731A4002827047C1F3080282807047E9
:1059400001468888C0F308007047818941F0010151
:1059500081817047028BD2B20283028B42EA01221C
:1059600002837047028B02F47F420283028B0A4358
:105970000283704721B1828A42F02002828204E0D1
:10598000828A4FF6DF731A408282704721B1828A81
:1059900042F01002828204E0828A4FF6EF731A40CE
:1059A0008282704721B1828A42F00802828204E03A
:1059B000828A4FF6F7731A408282704721B182893A
:1059C00042F40042828103E08289C2F30E028281A6
:1059D000704721B1828A42F40062828204E0828AA6
:1059E0004FF2FF731A4082827047828A4FF6FB7330
:1059F0001A408282828A0A438282704721B1828A57
:105A000042F00202828204E0828A4FF6FD731A405D
:105A10008282704702460020B1F5007F00D100BFAE
:105A200013880B400BB1012000E00020704701F407
:105A30000072B2F5007F00D100BFCA4302807047F8
:105A400070B50246002400230025002040F66A16A7
:105A5000B14200D100BFC1F3421501F01F0301267E
:105A600006FA03F3012D02D19689334006E0022D98
:105A700002D1168A334001E0968A33400C12012687
:105A800006FA04F41688344013B10CB1012000E08A
:105A9000002070BD10B50022002340F66A14A14218
:105AA00000D100BF0A1201249440A3B2DC43048059
:105AB00010BD000000380140004400400048004094
:105AC000004C00400050004001460020FE4A106893
:105AD00000F03800084310607047FB49096821F066
